{
  "_format": "hh-sol-artifact-1",
  "contractName": "LiquidityGeneratorTokenFactory",
  "sourceName": "contracts/factories/token/LiquidityGeneratorFactory.sol",
  "abi": [
    {
      "inputs": [],
      "stateMutability": "nonpayable",
      "type": "constructor"
    },
    {
      "anonymous": false,
      "inputs": [
        {
          "indexed": true,
          "internalType": "address",
          "name": "previousOwner",
          "type": "address"
        },
        {
          "indexed": true,
          "internalType": "address",
          "name": "newOwner",
          "type": "address"
        }
      ],
      "name": "OwnershipTransferred",
      "type": "event"
    },
    {
      "inputs": [
        {
          "internalType": "string",
          "name": "name",
          "type": "string"
        },
        {
          "internalType": "string",
          "name": "symbol",
          "type": "string"
        },
        {
          "internalType": "uint256",
          "name": "totalSupply",
          "type": "uint256"
        },
        {
          "internalType": "address",
          "name": "router",
          "type": "address"
        },
        {
          "internalType": "address",
          "name": "charity",
          "type": "address"
        },
        {
          "internalType": "uint16",
          "name": "taxFeeBps",
          "type": "uint16"
        },
        {
          "internalType": "uint16",
          "name": "liquidityFeeBps",
          "type": "uint16"
        },
        {
          "internalType": "uint16",
          "name": "charityBps",
          "type": "uint16"
        }
      ],
      "name": "create",
      "outputs": [
        {
          "internalType": "address",
          "name": "",
          "type": "address"
        }
      ],
      "stateMutability": "payable",
      "type": "function"
    },
    {
      "inputs": [],
      "name": "feeTo",
      "outputs": [
        {
          "internalType": "address",
          "name": "",
          "type": "address"
        }
      ],
      "stateMutability": "view",
      "type": "function"
    },
    {
      "inputs": [],
      "name": "flatFee",
      "outputs": [
        {
          "internalType": "uint256",
          "name": "",
          "type": "uint256"
        }
      ],
      "stateMutability": "view",
      "type": "function"
    },
    {
      "inputs": [],
      "name": "getFeeTo",
      "outputs": [
        {
          "internalType": "address",
          "name": "",
          "type": "address"
        }
      ],
      "stateMutability": "view",
      "type": "function"
    },
    {
      "inputs": [],
      "name": "getFlatFee",
      "outputs": [
        {
          "internalType": "uint256",
          "name": "",
          "type": "uint256"
        }
      ],
      "stateMutability": "view",
      "type": "function"
    },
    {
      "inputs": [],
      "name": "owner",
      "outputs": [
        {
          "internalType": "address",
          "name": "",
          "type": "address"
        }
      ],
      "stateMutability": "view",
      "type": "function"
    },
    {
      "inputs": [],
      "name": "renounceOwnership",
      "outputs": [],
      "stateMutability": "nonpayable",
      "type": "function"
    },
    {
      "inputs": [
        {
          "internalType": "address",
          "name": "feeReceivingAddress",
          "type": "address"
        }
      ],
      "name": "setFeeTo",
      "outputs": [],
      "stateMutability": "nonpayable",
      "type": "function"
    },
    {
      "inputs": [
        {
          "internalType": "uint256",
          "name": "fee",
          "type": "uint256"
        }
      ],
      "name": "setFlatFee",
      "outputs": [],
      "stateMutability": "nonpayable",
      "type": "function"
    },
    {
      "inputs": [
        {
          "internalType": "address",
          "name": "newOwner",
          "type": "address"
        }
      ],
      "name": "transferOwnership",
      "outputs": [],
      "stateMutability": "nonpayable",
      "type": "function"
    }
  ],
  "bytecode": "0x608060405234801561001057600080fd5b5061001a3361003d565b600180546001600160a01b031916331790556729a2241af62c000060025561008d565b600080546001600160a01b038381166001600160a01b0319831681178455604051919092169283917f8be0079c531659141344cd1fd0a4f28419497f9722a3daafe3b4186f6b6457e09190a35050565b61394a8061009c6000396000f3fe6080604052600436106200009d5760003560e01c80638a601fc811620000605780638a601fc814620001575780638da5cb5b1462000178578063d9eb59471462000198578063f2fde38b14620001b0578063f46901ed14620001d557600080fd5b8063017e7e5814620000a257806323fa495a14620000e15780636611f5281462000108578063686b45411462000128578063715018a6146200013f575b600080fd5b348015620000af57600080fd5b50600154620000c4906001600160a01b031681565b6040516001600160a01b0390911681526020015b60405180910390f35b348015620000ee57600080fd5b506200010662000100366004620007c4565b620001fa565b005b3480156200011557600080fd5b506001546001600160a01b0316620000c4565b620000c462000139366004620006f5565b62000235565b3480156200014c57600080fd5b506200010662000328565b3480156200016457600080fd5b506002545b604051908152602001620000d8565b3480156200018557600080fd5b506000546001600160a01b0316620000c4565b348015620001a557600080fd5b506200016960025481565b348015620001bd57600080fd5b5062000106620001cf366004620006d8565b62000363565b348015620001e257600080fd5b5062000106620001f4366004620006d8565b62000405565b6000546001600160a01b03163314620002305760405162461bcd60e51b81526004016200022790620008a4565b60405180910390fd5b600255565b6000600254341015620002765760405162461bcd60e51b8152602060048201526008602482015267466c61742066656560c01b604482015260640162000227565b6200028062000454565b60008989620002948a633b9aca00620008d9565b898989898933604051620002a8906200060b565b620002bc999897969594939291906200082b565b604051809103906000f080158015620002d9573d6000803e3d6000fd5b506001546002546040519293506001600160a01b039091169181156108fc0291906000818181858888f193505050501580156200031a573d6000803e3d6000fd5b509998505050505050505050565b6000546001600160a01b03163314620003555760405162461bcd60e51b81526004016200022790620008a4565b62000361600062000482565b565b6000546001600160a01b03163314620003905760405162461bcd60e51b81526004016200022790620008a4565b6001600160a01b038116620003f75760405162461bcd60e51b815260206004820152602660248201527f4f776e61626c653a206e6577206f776e657220697320746865207a65726f206160448201526564647265737360d01b606482015260840162000227565b620004028162000482565b50565b6000546001600160a01b03163314620004325760405162461bcd60e51b81526004016200022790620008a4565b600180546001600160a01b0319166001600160a01b0392909216919091179055565b60006200046d60025434620004d290919063ffffffff16565b905080156200040257620004023382620004e7565b600080546001600160a01b038381166001600160a01b0319831681178455604051919092169283917f8be0079c531659141344cd1fd0a4f28419497f9722a3daafe3b4186f6b6457e09190a35050565b6000620004e08284620008fb565b9392505050565b80471015620005395760405162461bcd60e51b815260206004820152601d60248201527f416464726573733a20696e73756666696369656e742062616c616e6365000000604482015260640162000227565b6000826001600160a01b03168260405160006040518083038185875af1925050503d806000811462000588576040519150601f19603f3d011682016040523d82523d6000602084013e6200058d565b606091505b5050905080620006065760405162461bcd60e51b815260206004820152603a60248201527f416464726573733a20756e61626c6520746f2073656e642076616c75652c207260448201527f6563697069656e74206d61792068617665207265766572746564000000000000606482015260840162000227565b505050565b612fd3806200094283390190565b80356001600160a01b03811681146200063157600080fd5b919050565b600082601f83011262000647578081fd5b813567ffffffffffffffff808211156200066557620006656200092b565b604051601f8301601f19908116603f011681019082821181831017156200069057620006906200092b565b81604052838152866020858801011115620006a9578485fd5b8360208701602083013792830160200193909352509392505050565b803561ffff811681146200063157600080fd5b600060208284031215620006ea578081fd5b620004e08262000619565b600080600080600080600080610100898b03121562000712578384fd5b883567ffffffffffffffff808211156200072a578586fd5b620007388c838d0162000636565b995060208b01359150808211156200074e578586fd5b506200075d8b828c0162000636565b975050604089013595506200077560608a0162000619565b94506200078560808a0162000619565b93506200079560a08a01620006c5565b9250620007a560c08a01620006c5565b9150620007b560e08a01620006c5565b90509295985092959890939650565b600060208284031215620007d6578081fd5b5035919050565b60008151808452815b818110156200080457602081850181015186830182015201620007e6565b81811115620008165782602083870101525b50601f01601f19169290920160200192915050565b6000610120808352620008418184018d620007dd565b9050828103602084015262000857818c620007dd565b604084019a909a5250506001600160a01b039687166060820152948616608086015261ffff93841660a086015291831660c085015290911660e08301529091166101009091015292915050565b6020808252818101527f4f776e61626c653a2063616c6c6572206973206e6f7420746865206f776e6572604082015260600190565b6000816000190483118215151615620008f657620008f662000915565b500290565b60008282101562000910576200091062000915565b500390565b634e487b7160e01b600052601160045260246000fd5b634e487b7160e01b600052604160045260246000fdfe6080604052600d54600e55600f5460105560115460125560405162002fd338038062002fd383398101604081905262000038916200084f565b620000433362000565565b62000052565b60405180910390fd5b6001600160a01b038516620000ee5761ffff821615620000ee5760405162461bcd60e51b815260206004820152604a60248201527f43616e742073657420626f74682063686172697479206164647265737320746f60448201527f2061646472657373203020616e6420636861726974792070657263656e74206d60648201526906f7265207468616e20360b41b608482015260a40162000049565b6109c482620000fe85876200095d565b6200010a91906200095d565b61ffff1611156200015e5760405162461bcd60e51b815260206004820152601560248201527f546f74616c20666565206973206f766572203235250000000000000000000000604482015260640162000049565b88516200017390600a9060208c0190620006a9565b5087516200018990600b9060208b0190620006a9565b50600c805460ff191660091790556007879055620001aa8760001962000a16565b620001b890600019620009bf565b60085561ffff848116600d819055600e55838116600f819055601055601580546001600160a01b0319166001600160a01b038816179055821660118190556012556200020481620005b5565b6200023a6127106200022660058a6200068660201b620010d81790919060201c565b6200069b60201b620010e41790919060201c565b6016556015805460ff60a81b1916600160a81b179055600854600160006200026a6000546001600160a01b031690565b6001600160a01b03166001600160a01b03168152602001908152602001600020819055506000869050806001600160a01b031663c45a01556040518163ffffffff1660e01b815260040160206040518083038186803b158015620002cd57600080fd5b505afa158015620002e2573d6000803e3d6000fd5b505050506040513d601f19601f8201168201806040525081019062000308919062000832565b6001600160a01b031663c9c6539630836001600160a01b031663105e43086040518163ffffffff1660e01b815260040160206040518083038186803b1580156200035157600080fd5b505afa15801562000366573d6000803e3d6000fd5b505050506040513d601f19601f820116820180604052508101906200038c919062000832565b6040516001600160e01b031960e085901b1681526001600160a01b03928316600482015291166024820152604401602060405180830381600087803b158015620003d557600080fd5b505af1158015620003ea573d6000803e3d6000fd5b505050506040513d601f19601f8201168201806040525081019062000410919062000832565b601480546001600160a01b03199081166001600160a01b039384161790915560138054909116918316919091179055600160046000620004586000546001600160a01b031690565b6001600160a01b0316815260208082019290925260409081016000908120805494151560ff199586161790553081526004909252902080549091166001179055620004ab6000546001600160a01b031690565b6001600160a01b031660006001600160a01b03167fddf252ad1be2c89b69c2b068fc378daa952ba7f163c4a11628f55a4df523b3ef600754604051620004f391815260200190565b60405180910390a3306200050f6000546001600160a01b031690565b6001600160a01b03167f56358b41df5fa59f5639228f0930994cbdde383c8a8fd74e06c04e1deebe3562600260016040516200054d92919062000930565b60405180910390a35050505050505050505062000a6f565b600080546001600160a01b038381166001600160a01b0319831681178455604051919092169283917f8be0079c531659141344cd1fd0a4f28419497f9722a3daafe3b4186f6b6457e09190a35050565b6000546001600160a01b03163314620006115760405162461bcd60e51b815260206004820181905260248201527f4f776e61626c653a2063616c6c6572206973206e6f7420746865206f776e6572604482015260640162000049565b6001600160a01b038116620006785760405162461bcd60e51b815260206004820152602660248201527f4f776e61626c653a206e6577206f776e657220697320746865207a65726f206160448201526564647265737360d01b606482015260840162000049565b620006838162000565565b50565b60006200069482846200099d565b9392505050565b600062000694828462000986565b828054620006b790620009d9565b90600052602060002090601f016020900481019282620006db576000855562000726565b82601f10620006f657805160ff191683800117855562000726565b8280016001018555821562000726579182015b828111156200072657825182559160200191906001019062000709565b506200073492915062000738565b5090565b5b8082111562000734576000815560010162000739565b80516001600160a01b03811681146200076757600080fd5b919050565b600082601f8301126200077d578081fd5b81516001600160401b03808211156200079a576200079a62000a59565b604051601f8301601f19908116603f01168101908282118183101715620007c557620007c562000a59565b81604052838152602092508683858801011115620007e1578485fd5b8491505b83821015620008045785820183015181830184015290820190620007e5565b838211156200081557848385830101525b9695505050505050565b805161ffff811681146200076757600080fd5b60006020828403121562000844578081fd5b62000694826200074f565b60008060008060008060008060006101208a8c0312156200086e578485fd5b89516001600160401b038082111562000885578687fd5b620008938d838e016200076c565b9a5060208c0151915080821115620008a9578687fd5b50620008b88c828d016200076c565b98505060408a01519650620008d060608b016200074f565b9550620008e060808b016200074f565b9450620008f060a08b016200081f565b93506200090060c08b016200081f565b92506200091060e08b016200081f565b9150620009216101008b016200074f565b90509295985092959850929598565b60408101600884106200095357634e487b7160e01b600052602160045260246000fd5b9281526020015290565b600061ffff8083168185168083038211156200097d576200097d62000a2d565b01949350505050565b60008262000998576200099862000a43565b500490565b6000816000190483118215151615620009ba57620009ba62000a2d565b500290565b600082821015620009d457620009d462000a2d565b500390565b600181811c90821680620009ee57607f821691505b6020821081141562000a1057634e487b7160e01b600052602260045260246000fd5b50919050565b60008262000a285762000a2862000a43565b500690565b634e487b7160e01b600052601160045260246000fd5b634e487b7160e01b600052601260045260246000fd5b634e487b7160e01b600052604160045260246000fd5b6125548062000a7f6000396000f3fe6080604052600436106102085760003560e01c80634a231ffa116101185780638ee88c53116100a0578063c49b9a801161006f578063c49b9a80146105fc578063dd62ed3e1461061c578063ea2f0b3714610662578063f2fde38b14610682578063ffa1ad74146106a257600080fd5b80638ee88c531461058757806395d89b41146105a7578063a457c2d7146105bc578063a9059cbb146105dc57600080fd5b80636bc87c3a116100e75780636bc87c3a146104e557806370a08231146104fb578063715018a61461051b57806388f82020146105305780638da5cb5b1461056957600080fd5b80634a231ffa1461044b5780634a74bb021461046b57806352390c021461048c5780635342acb4146104ac57600080fd5b80632fa840631161019b5780633b124fe71161016a5780633b124fe7146103bf5780633bd5d173146103d557806340f8007a146103f5578063437823ec1461040b5780634549b0391461042b57600080fd5b80632fa840631461033d578063313ce5671461035d5780633685d4191461037f578063395093511461039f57600080fd5b806318160ddd116101d757806318160ddd146102b057806319a8ac9e146102c557806323b872dd146102fd5780632d8381191461031d57600080fd5b8063061c82d01461021457806306fdde0314610236578063095ea7b31461026157806313114a9d1461029157600080fd5b3661020f57005b600080fd5b34801561022057600080fd5b5061023461022f36600461227a565b6106b7565b005b34801561024257600080fd5b5061024b610757565b60405161025891906122ea565b60405180910390f35b34801561026d57600080fd5b5061028161027c366004612235565b6107e9565b6040519015158152602001610258565b34801561029d57600080fd5b506009545b604051908152602001610258565b3480156102bc57600080fd5b506007546102a2565b3480156102d157600080fd5b506015546102e5906001600160a01b031681565b6040516001600160a01b039091168152602001610258565b34801561030957600080fd5b506102816103183660046121f5565b610800565b34801561032957600080fd5b506102a261033836600461227a565b610869565b34801561034957600080fd5b506013546102e5906001600160a01b031681565b34801561036957600080fd5b50600c5460405160ff9091168152602001610258565b34801561038b57600080fd5b5061023461039a366004612185565b6108ed565b3480156103ab57600080fd5b506102816103ba366004612235565b610adc565b3480156103cb57600080fd5b506102a2600d5481565b3480156103e157600080fd5b506102346103f036600461227a565b610b12565b34801561040157600080fd5b506102a260115481565b34801561041757600080fd5b50610234610426366004612185565b610bfe565b34801561043757600080fd5b506102a2610446366004612292565b610c4c565b34801561045757600080fd5b506014546102e5906001600160a01b031681565b34801561047757600080fd5b5060155461028190600160a81b900460ff1681565b34801561049857600080fd5b506102346104a7366004612185565b610cdb565b3480156104b857600080fd5b506102816104c7366004612185565b6001600160a01b031660009081526004602052604090205460ff1690565b3480156104f157600080fd5b506102a2600f5481565b34801561050757600080fd5b506102a2610516366004612185565b610e2e565b34801561052757600080fd5b50610234610e8d565b34801561053c57600080fd5b5061028161054b366004612185565b6001600160a01b031660009081526005602052604090205460ff1690565b34801561057557600080fd5b506000546001600160a01b03166102e5565b34801561059357600080fd5b506102346105a236600461227a565b610ec3565b3480156105b357600080fd5b5061024b610f08565b3480156105c857600080fd5b506102816105d7366004612235565b610f17565b3480156105e857600080fd5b506102816105f7366004612235565b610f66565b34801561060857600080fd5b50610234610617366004612260565b610f73565b34801561062857600080fd5b506102a26106373660046121bd565b6001600160a01b03918216600090815260036020908152604080832093909416825291909152205490565b34801561066e57600080fd5b5061023461067d366004612185565b610ff5565b34801561068e57600080fd5b5061023461069d366004612185565b611040565b3480156106ae57600080fd5b506102a2600181565b6000546001600160a01b031633146106ea5760405162461bcd60e51b81526004016106e19061233d565b60405180910390fd5b600d819055601154600f546109c4919061070490846123e2565b61070e91906123e2565b11156107545760405162461bcd60e51b8152602060048201526015602482015274546f74616c20666565206973206f7665722032352560581b60448201526064016106e1565b50565b6060600a805461076690612450565b80601f016020809104026020016040519081016040528092919081815260200182805461079290612450565b80156107df5780601f106107b4576101008083540402835291602001916107df565b820191906000526020600020905b8154815290600101906020018083116107c257829003601f168201915b5050505050905090565b60006107f63384846110f0565b5060015b92915050565b600061080d848484611215565b61085f843361085a856040518060600160405280602881526020016124d2602891396001600160a01b038a166000908152600360209081526040808320338452909152902054919061140a565b6110f0565b5060019392505050565b60006008548211156108d05760405162461bcd60e51b815260206004820152602a60248201527f416d6f756e74206d757374206265206c657373207468616e20746f74616c207260448201526965666c656374696f6e7360b01b60648201526084016106e1565b60006108da611436565b90506108e683826110e4565b9392505050565b6000546001600160a01b031633146109175760405162461bcd60e51b81526004016106e19061233d565b6001600160a01b03811660009081526005602052604090205460ff1661097f5760405162461bcd60e51b815260206004820152601b60248201527f4163636f756e7420697320616c7265616479206578636c75646564000000000060448201526064016106e1565b60005b600654811015610ad857816001600160a01b0316600682815481106109b757634e487b7160e01b600052603260045260246000fd5b6000918252602090912001546001600160a01b03161415610ac657600680546109e290600190612439565b81548110610a0057634e487b7160e01b600052603260045260246000fd5b600091825260209091200154600680546001600160a01b039092169183908110610a3a57634e487b7160e01b600052603260045260246000fd5b600091825260208083209190910180546001600160a01b0319166001600160a01b039485161790559184168152600282526040808220829055600590925220805460ff191690556006805480610aa057634e487b7160e01b600052603160045260246000fd5b600082815260209020810160001990810180546001600160a01b03191690550190555050565b80610ad08161248b565b915050610982565b5050565b3360008181526003602090815260408083206001600160a01b038716845290915281205490916107f691859061085a9086611459565b3360008181526005602052604090205460ff1615610b875760405162461bcd60e51b815260206004820152602c60248201527f4578636c75646564206164647265737365732063616e6e6f742063616c6c207460448201526b3434b990333ab731ba34b7b760a11b60648201526084016106e1565b6000610b9283611465565b5050506001600160a01b038616600090815260016020526040902054939450610bc0939250849150506114c0565b6001600160a01b038316600090815260016020526040902055600854610be690826114c0565b600855600954610bf69084611459565b600955505050565b6000546001600160a01b03163314610c285760405162461bcd60e51b81526004016106e19061233d565b6001600160a01b03166000908152600460205260409020805460ff19166001179055565b6000600754831115610ca05760405162461bcd60e51b815260206004820152601f60248201527f416d6f756e74206d757374206265206c657373207468616e20737570706c790060448201526064016106e1565b81610cc0576000610cb084611465565b509496506107fa95505050505050565b6000610ccb84611465565b509396506107fa95505050505050565b6000546001600160a01b03163314610d055760405162461bcd60e51b81526004016106e19061233d565b6001600160a01b03811660009081526005602052604090205460ff1615610d6e5760405162461bcd60e51b815260206004820152601b60248201527f4163636f756e7420697320616c7265616479206578636c75646564000000000060448201526064016106e1565b6001600160a01b03811660009081526001602052604090205415610dc8576001600160a01b038116600090815260016020526040902054610dae90610869565b6001600160a01b0382166000908152600260205260409020555b6001600160a01b03166000818152600560205260408120805460ff191660019081179091556006805491820181559091527ff652222313e28459528d920b65115c16c04f3efc82aaedc97be59f3f377c0d3f0180546001600160a01b0319169091179055565b6001600160a01b03811660009081526005602052604081205460ff1615610e6b57506001600160a01b031660009081526002602052604090205490565b6001600160a01b0382166000908152600160205260409020546107fa90610869565b6000546001600160a01b03163314610eb75760405162461bcd60e51b81526004016106e19061233d565b610ec160006114cc565b565b6000546001600160a01b03163314610eed5760405162461bcd60e51b81526004016106e19061233d565b600f819055601154600d546109c491906107049084906123e2565b6060600b805461076690612450565b60006107f6338461085a856040518060600160405280602581526020016124fa602591393360009081526003602090815260408083206001600160a01b038d168452909152902054919061140a565b60006107f6338484611215565b6000546001600160a01b03163314610f9d5760405162461bcd60e51b81526004016106e19061233d565b60158054821515600160a81b0260ff60a81b199091161790556040517f53726dfcaf90650aa7eb35524f4d3220f07413c8d6cb404cc8c18bf5591bc15990610fea90831515815260200190565b60405180910390a150565b6000546001600160a01b0316331461101f5760405162461bcd60e51b81526004016106e19061233d565b6001600160a01b03166000908152600460205260409020805460ff19169055565b6000546001600160a01b0316331461106a5760405162461bcd60e51b81526004016106e19061233d565b6001600160a01b0381166110cf5760405162461bcd60e51b815260206004820152602660248201527f4f776e61626c653a206e6577206f776e657220697320746865207a65726f206160448201526564647265737360d01b60648201526084016106e1565b610754816114cc565b60006108e6828461241a565b60006108e682846123fa565b6001600160a01b0383166111525760405162461bcd60e51b8152602060048201526024808201527f45524332303a20617070726f76652066726f6d20746865207a65726f206164646044820152637265737360e01b60648201526084016106e1565b6001600160a01b0382166111b35760405162461bcd60e51b815260206004820152602260248201527f45524332303a20617070726f766520746f20746865207a65726f206164647265604482015261737360f01b60648201526084016106e1565b6001600160a01b0383811660008181526003602090815260408083209487168084529482529182902085905590518481527f8c5be1e5ebec7d5bd14f71427d1e84f3dd0314c0f7b2291e5b200ac8c7c3b92591015b60405180910390a3505050565b6001600160a01b0383166112795760405162461bcd60e51b815260206004820152602560248201527f45524332303a207472616e736665722066726f6d20746865207a65726f206164604482015264647265737360d81b60648201526084016106e1565b6001600160a01b0382166112db5760405162461bcd60e51b815260206004820152602360248201527f45524332303a207472616e7366657220746f20746865207a65726f206164647260448201526265737360e81b60648201526084016106e1565b6000811161133d5760405162461bcd60e51b815260206004820152602960248201527f5472616e7366657220616d6f756e74206d7573742062652067726561746572206044820152687468616e207a65726f60b81b60648201526084016106e1565b600061134830610e2e565b601654909150811080159081906113695750601554600160a01b900460ff16155b801561138357506014546001600160a01b03868116911614155b80156113985750601554600160a81b900460ff165b156113ab5760165491506113ab8261151c565b6001600160a01b03851660009081526004602052604090205460019060ff16806113ed57506001600160a01b03851660009081526004602052604090205460ff165b156113f6575060005b611402868686846115c3565b505050505050565b6000818484111561142e5760405162461bcd60e51b81526004016106e191906122ea565b505050900390565b6000806000611443611746565b909250905061145282826110e4565b9250505090565b60006108e682846123e2565b600080600080600080600080600080600061147f8c611900565b935093509350935060008060006114a08f87878761149b611436565b611955565b919f509d509b509599509397509195509350505050919395979092949650565b60006108e68284612439565b600080546001600160a01b038381166001600160a01b0319831681178455604051919092169283917f8be0079c531659141344cd1fd0a4f28419497f9722a3daafe3b4186f6b6457e09190a35050565b6015805460ff60a01b1916600160a01b179055600061153c8260026110e4565b9050600061154a83836114c0565b905047611556836119b7565b600061156247836114c0565b905061156e8382611b34565b60408051858152602081018390529081018490527f17bbfb9a6069321b6ded73bd96327c9e6b7212a5cd51ff219cd61370acafb5619060600160405180910390a150506015805460ff60a01b19169055505050565b806115d0576115d0611c18565b6001600160a01b03841660009081526005602052604090205460ff16801561161157506001600160a01b03831660009081526005602052604090205460ff16155b1561162657611621848484611c5d565b611724565b6001600160a01b03841660009081526005602052604090205460ff1615801561166757506001600160a01b03831660009081526005602052604090205460ff165b1561167757611621848484611da3565b6001600160a01b03841660009081526005602052604090205460ff161580156116b957506001600160a01b03831660009081526005602052604090205460ff16155b156116c957611621848484611e62565b6001600160a01b03841660009081526005602052604090205460ff16801561170957506001600160a01b03831660009081526005602052604090205460ff165b1561171957611621848484611ebc565b611724848484611e62565b8061174057611740600e54600d55601054600f55601254601155565b50505050565b6008546007546000918291825b6006548110156118d05782600160006006848154811061178357634e487b7160e01b600052603260045260246000fd5b60009182526020808320909101546001600160a01b0316835282019290925260400190205411806117fc57508160026000600684815481106117d557634e487b7160e01b600052603260045260246000fd5b60009182526020808320909101546001600160a01b03168352820192909252604001902054115b1561181257600854600754945094505050509091565b611866600160006006848154811061183a57634e487b7160e01b600052603260045260246000fd5b60009182526020808320909101546001600160a01b0316835282019290925260400190205484906114c0565b92506118bc600260006006848154811061189057634e487b7160e01b600052603260045260246000fd5b60009182526020808320909101546001600160a01b0316835282019290925260400190205483906114c0565b9150806118c88161248b565b915050611753565b506007546008546118e0916110e4565b8210156118f7576008546007549350935050509091565b90939092509050565b600080600080600061191186611f45565b9050600061191e87611f68565b9050600061192b88611f85565b905060006119458261193f85818d896114c0565b906114c0565b9993985091965094509092505050565b600080808061196489866110d8565b9050600061197289876110d8565b9050600061198089886110d8565b9050600061198e89896110d8565b905060006119a28261193f858189896114c0565b949d949c50929a509298505050505050505050565b60408051600280825260608201835260009260208301908036833701905050905030816000815181106119fa57634e487b7160e01b600052603260045260246000fd5b6001600160a01b039283166020918202929092018101919091526013546040805163020bc86160e31b81529051919093169263105e4308926004808301939192829003018186803b158015611a4e57600080fd5b505afa158015611a62573d6000803e3d6000fd5b505050506040513d601f19601f82011682018060405250810190611a8691906121a1565b81600181518110611aa757634e487b7160e01b600052603260045260246000fd5b6001600160a01b039283166020918202929092010152601354611acd91309116846110f0565b601354604051632db8740960e21b81526001600160a01b039091169063b6e1d02490611b06908590600090869030904290600401612372565b600060405180830381600087803b158015611b2057600080fd5b505af1158015611402573d6000803e3d6000fd5b601354611b4c9030906001600160a01b0316846110f0565b6013546001600160a01b031663801ef55d823085600080611b756000546001600160a01b031690565b60405160e088901b6001600160e01b03191681526001600160a01b03958616600482015260248101949094526044840192909252606483015290911660848201524260a482015260c4016060604051808303818588803b158015611bd857600080fd5b505af1158015611bec573d6000803e3d6000fd5b50505050506040513d601f19601f82011682018060405250810190611c1191906122bd565b5050505050565b600d54158015611c285750600f54155b8015611c345750601154155b15611c3b57565b600d8054600e55600f8054601055601180546012556000928390559082905555565b6000806000806000806000611c7188611465565b9650965096509650965096509650611cb788600260008d6001600160a01b03166001600160a01b03168152602001908152602001600020546114c090919063ffffffff16565b6001600160a01b038b16600090815260026020908152604080832093909355600190522054611ce690886114c0565b6001600160a01b03808c1660009081526001602052604080822093909355908b1681522054611d159087611459565b6001600160a01b038a16600090815260016020526040902055611d3782611fbb565b611d4081612044565b611d4a858461214c565b886001600160a01b03168a6001600160a01b03167fddf252ad1be2c89b69c2b068fc378daa952ba7f163c4a11628f55a4df523b3ef86604051611d8f91815260200190565b60405180910390a350505050505050505050565b6000806000806000806000611db788611465565b9650965096509650965096509650611dfd87600160008d6001600160a01b03166001600160a01b03168152602001908152602001600020546114c090919063ffffffff16565b6001600160a01b03808c16600090815260016020908152604080832094909455918c16815260029091522054611e339085611459565b6001600160a01b038a16600090815260026020908152604080832093909355600190522054611d159087611459565b6000806000806000806000611e7688611465565b9650965096509650965096509650611ce687600160008d6001600160a01b03166001600160a01b03168152602001908152602001600020546114c090919063ffffffff16565b6000806000806000806000611ed088611465565b9650965096509650965096509650611f1688600260008d6001600160a01b03166001600160a01b03168152602001908152602001600020546114c090919063ffffffff16565b6001600160a01b038b16600090815260026020908152604080832093909355600190522054611dfd90886114c0565b60006107fa612710611f62600d54856110d890919063ffffffff16565b906110e4565b60006107fa612710611f62600f54856110d890919063ffffffff16565b6015546000906001600160a01b0316611fa057506000919050565b6107fa612710611f62601154856110d890919063ffffffff16565b6000611fc5611436565b90506000611fd383836110d8565b30600090815260016020526040902054909150611ff09082611459565b3060009081526001602090815260408083209390935560059052205460ff161561203f573060009081526002602052604090205461202e9084611459565b306000908152600260205260409020555b505050565b8015610754576000612054611436565b9050600061206283836110d8565b6015546001600160a01b031660009081526001602052604090205490915061208a9082611459565b601580546001600160a01b03908116600090815260016020908152604080832095909555925490911681526005909152205460ff1615612105576015546001600160a01b03166000908152600260205260409020546120e99084611459565b6015546001600160a01b03166000908152600260205260409020555b6015546001600160a01b0316336001600160a01b03167fddf252ad1be2c89b69c2b068fc378daa952ba7f163c4a11628f55a4df523b3ef8560405161120891815260200190565b60085461215990836114c0565b6008556009546121699082611459565b6009555050565b8035801515811461218057600080fd5b919050565b600060208284031215612196578081fd5b81356108e6816124bc565b6000602082840312156121b2578081fd5b81516108e6816124bc565b600080604083850312156121cf578081fd5b82356121da816124bc565b915060208301356121ea816124bc565b809150509250929050565b600080600060608486031215612209578081fd5b8335612214816124bc565b92506020840135612224816124bc565b929592945050506040919091013590565b60008060408385031215612247578182fd5b8235612252816124bc565b946020939093013593505050565b600060208284031215612271578081fd5b6108e682612170565b60006020828403121561228b578081fd5b5035919050565b600080604083850312156122a4578182fd5b823591506122b460208401612170565b90509250929050565b6000806000606084860312156122d1578283fd5b8351925060208401519150604084015190509250925092565b6000602080835283518082850152825b81811015612316578581018301518582016040015282016122fa565b818111156123275783604083870101525b50601f01601f1916929092016040019392505050565b6020808252818101527f4f776e61626c653a2063616c6c6572206973206e6f7420746865206f776e6572604082015260600190565b600060a082018783526020878185015260a0604085015281875180845260c0860191508289019350845b818110156123c15784516001600160a01b03168352938301939183019160010161239c565b50506001600160a01b03969096166060850152505050608001529392505050565b600082198211156123f5576123f56124a6565b500190565b60008261241557634e487b7160e01b81526012600452602481fd5b500490565b6000816000190483118215151615612434576124346124a6565b500290565b60008282101561244b5761244b6124a6565b500390565b600181811c9082168061246457607f821691505b6020821081141561248557634e487b7160e01b600052602260045260246000fd5b50919050565b600060001982141561249f5761249f6124a6565b5060010190565b634e487b7160e01b600052601160045260246000fd5b6001600160a01b038116811461075457600080fdfe45524332303a207472616e7366657220616d6f756e74206578636565647320616c6c6f77616e636545524332303a2064656372656173656420616c6c6f77616e63652062656c6f77207a65726fa2646970667358221220ad612581f5b8872b2df9e85ad90b22f117a7a184dda5b36de42edcf99553dad764736f6c63430008040033a2646970667358221220c7de53e16fb8e9b0517083237360a57eb7caa56c683d3fdfd1e9c1aa00dfeae764736f6c63430008040033",
  "linkReferences": {},
  "deployedLinkReferences": {}
}