{
  "_format": "hh-sol-artifact-1",
  "contractName": "StandardTokenFactory",
  "sourceName": "contracts/factories/token/StandardTokenFactory.sol",
  "abi": [
    {
      "inputs": [
        {
          "internalType": "address",
          "name": "factoryManager_",
          "type": "address"
        },
        {
          "internalType": "address",
          "name": "",
          "type": "address"
        }
      ],
      "stateMutability": "nonpayable",
      "type": "constructor"
    },
    {
      "anonymous": false,
      "inputs": [
        {
          "indexed": true,
          "internalType": "address",
          "name": "oldFeeTo",
          "type": "address"
        },
        {
          "indexed": true,
          "internalType": "address",
          "name": "newFeeTo",
          "type": "address"
        }
      ],
      "name": "FeeToUpdated",
      "type": "event"
    },
    {
      "anonymous": false,
      "inputs": [
        {
          "indexed": false,
          "internalType": "uint256",
          "name": "oldFee",
          "type": "uint256"
        },
        {
          "indexed": false,
          "internalType": "uint256",
          "name": "newFee",
          "type": "uint256"
        }
      ],
      "name": "FlatFeeUpdated",
      "type": "event"
    },
    {
      "anonymous": false,
      "inputs": [
        {
          "indexed": true,
          "internalType": "address",
          "name": "previousOwner",
          "type": "address"
        },
        {
          "indexed": true,
          "internalType": "address",
          "name": "newOwner",
          "type": "address"
        }
      ],
      "name": "OwnershipTransferred",
      "type": "event"
    },
    {
      "anonymous": false,
      "inputs": [
        {
          "indexed": true,
          "internalType": "address",
          "name": "tokenAddress",
          "type": "address"
        },
        {
          "indexed": true,
          "internalType": "address",
          "name": "creator",
          "type": "address"
        },
        {
          "indexed": false,
          "internalType": "string",
          "name": "name",
          "type": "string"
        },
        {
          "indexed": false,
          "internalType": "string",
          "name": "symbol",
          "type": "string"
        },
        {
          "indexed": false,
          "internalType": "uint8",
          "name": "decimals",
          "type": "uint8"
        },
        {
          "indexed": false,
          "internalType": "uint256",
          "name": "totalSupply",
          "type": "uint256"
        }
      ],
      "name": "TokenCreated",
      "type": "event"
    },
    {
      "inputs": [
        {
          "internalType": "string",
          "name": "name",
          "type": "string"
        },
        {
          "internalType": "string",
          "name": "symbol",
          "type": "string"
        },
        {
          "internalType": "uint8",
          "name": "decimals",
          "type": "uint8"
        },
        {
          "internalType": "uint256",
          "name": "totalSupply",
          "type": "uint256"
        }
      ],
      "name": "create",
      "outputs": [
        {
          "internalType": "address",
          "name": "token",
          "type": "address"
        }
      ],
      "stateMutability": "payable",
      "type": "function"
    },
    {
      "inputs": [],
      "name": "factoryManager",
      "outputs": [
        {
          "internalType": "address",
          "name": "",
          "type": "address"
        }
      ],
      "stateMutability": "view",
      "type": "function"
    },
    {
      "inputs": [],
      "name": "factoryOwner",
      "outputs": [
        {
          "internalType": "address",
          "name": "",
          "type": "address"
        }
      ],
      "stateMutability": "view",
      "type": "function"
    },
    {
      "inputs": [],
      "name": "feeTo",
      "outputs": [
        {
          "internalType": "address",
          "name": "",
          "type": "address"
        }
      ],
      "stateMutability": "view",
      "type": "function"
    },
    {
      "inputs": [],
      "name": "flatFee",
      "outputs": [
        {
          "internalType": "uint256",
          "name": "",
          "type": "uint256"
        }
      ],
      "stateMutability": "view",
      "type": "function"
    },
    {
      "inputs": [
        {
          "internalType": "address",
          "name": "feeReceivingAddress",
          "type": "address"
        }
      ],
      "name": "setFeeTo",
      "outputs": [],
      "stateMutability": "nonpayable",
      "type": "function"
    },
    {
      "inputs": [
        {
          "internalType": "uint256",
          "name": "fee",
          "type": "uint256"
        }
      ],
      "name": "setFlatFee",
      "outputs": [],
      "stateMutability": "nonpayable",
      "type": "function"
    },
    {
      "inputs": [
        {
          "internalType": "address",
          "name": "newOwner",
          "type": "address"
        }
      ],
      "name": "transferOwnership",
      "outputs": [],
      "stateMutability": "nonpayable",
      "type": "function"
    }
  ],
  "bytecode": "0x608060405234801561001057600080fd5b50604051611cc3380380611cc383398101604081905261002f91610145565b60016000556001600160a01b0382166100b45760405162461bcd60e51b815260206004820152603c60248201527f5374616e64617264546f6b656e466163746f72793a20666163746f7279206d6160448201527f6e616765722063616e6e6f74206265207a65726f206164647265737300000000606482015260840160405180910390fd5b600180546001600160a01b0384166001600160a01b031991821617909155600280548216339081179091556729a2241af62c00006003556004805490921681179091556040516000907f8be0079c531659141344cd1fd0a4f28419497f9722a3daafe3b4186f6b6457e0908290a35050610178565b80516001600160a01b038116811461014057600080fd5b919050565b6000806040838503121561015857600080fd5b61016183610129565b915061016f60208401610129565b90509250929050565b611b3c806101876000396000f3fe608060405260043610620000855760003560e01c8063831e80f21162000054578063831e80f21462000134578063d9eb5947146200014b578063f2fde38b1462000172578063f46901ed146200019757600080fd5b8063017e7e58146200008a578063032b5a7314620000c957806323fa495a14620000eb5780634273601c1462000112575b600080fd5b3480156200009757600080fd5b50600254620000ac906001600160a01b031681565b6040516001600160a01b0390911681526020015b60405180910390f35b348015620000d657600080fd5b50600154620000ac906001600160a01b031681565b348015620000f857600080fd5b50620001106200010a366004620008f7565b620001bc565b005b3480156200011f57600080fd5b50600454620000ac906001600160a01b031681565b620000ac62000145366004620009bc565b62000237565b3480156200015857600080fd5b506200016360035481565b604051908152602001620000c0565b3480156200017f57600080fd5b50620001106200019136600462000a48565b62000530565b348015620001a457600080fd5b5062000110620001b636600462000a48565b62000626565b6004546001600160a01b03163314620001f25760405162461bcd60e51b8152600401620001e99062000a73565b60405180910390fd5b600380549082905560408051828152602081018490527f957f8e165512616cc1b935b3ba999a8a0870b6e18300af633ba488f7926bce2d910160405180910390a15050565b60006003543410156200029c5760405162461bcd60e51b815260206004820152602660248201527f5374616e64617264546f6b656e466163746f72793a20696e73756666696369656044820152656e742066656560d01b6064820152608401620001e9565b620002a662000723565b60008551116200030c5760405162461bcd60e51b815260206004820152602a60248201527f5374616e64617264546f6b656e466163746f72793a206e616d652063616e6e6f6044820152697420626520656d70747960b01b6064820152608401620001e9565b6000845111620003745760405162461bcd60e51b815260206004820152602c60248201527f5374616e64617264546f6b656e466163746f72793a2073796d626f6c2063616e60448201526b6e6f7420626520656d70747960a01b6064820152608401620001e9565b60008211620003ec5760405162461bcd60e51b815260206004820152603960248201527f5374616e64617264546f6b656e466163746f72793a20746f74616c207375707060448201527f6c79206d7573742062652067726561746572207468616e2030000000000000006064820152608401620001e9565b620003f66200077f565b60035460025462000413916001600160a01b0390911690620007b0565b600085858585336040516200042890620008e9565b6200043895949392919062000b10565b604051809103906000f08015801562000455573d6000803e3d6000fd5b5060015460405163141106f560e11b81523360048201526001600160a01b038084166024830152600060448301529294508493509116906328220dea90606401600060405180830381600087803b158015620004b057600080fd5b505af1158015620004c5573d6000803e3d6000fd5b50505050336001600160a01b0316826001600160a01b03167f6aba688e0d9fb13e49808a9f69e09384142cd46853e4ecfcf79aa7e4d63c18328888888860405162000514949392919062000b63565b60405180910390a350620005286001600055565b949350505050565b6004546001600160a01b031633146200055d5760405162461bcd60e51b8152600401620001e99062000a73565b6001600160a01b038116620005d45760405162461bcd60e51b815260206004820152603660248201527f5374616e64617264546f6b656e466163746f72793a206e6577206f776e65722060448201527563616e6e6f74206265207a65726f206164647265737360501b6064820152608401620001e9565b600480546001600160a01b038381166001600160a01b0319831681179093556040519116919082907f8be0079c531659141344cd1fd0a4f28419497f9722a3daafe3b4186f6b6457e090600090a35050565b6004546001600160a01b03163314620006535760405162461bcd60e51b8152600401620001e99062000a73565b6001600160a01b038116620006d15760405162461bcd60e51b815260206004820152603a60248201527f5374616e64617264546f6b656e466163746f72793a206665652072656369706960448201527f656e742063616e6e6f74206265207a65726f20616464726573730000000000006064820152608401620001e9565b600280546001600160a01b038381166001600160a01b0319831681179093556040519116919082907f8f93286d6f131e956d1aa672d3ecdc817f24efc20b223b0de5d591f454edc34790600090a35050565b60026000541415620007785760405162461bcd60e51b815260206004820152601f60248201527f5265656e7472616e637947756172643a207265656e7472616e742063616c6c006044820152606401620001e9565b6002600055565b60006200079860035434620008d490919063ffffffff16565b90508015620007ad57620007ad3382620007b0565b50565b80471015620008025760405162461bcd60e51b815260206004820152601d60248201527f416464726573733a20696e73756666696369656e742062616c616e63650000006044820152606401620001e9565b6000826001600160a01b03168260405160006040518083038185875af1925050503d806000811462000851576040519150601f19603f3d011682016040523d82523d6000602084013e62000856565b606091505b5050905080620008cf5760405162461bcd60e51b815260206004820152603a60248201527f416464726573733a20756e61626c6520746f2073656e642076616c75652c207260448201527f6563697069656e74206d617920686176652072657665727465640000000000006064820152608401620001e9565b505050565b6000620008e2828462000ba3565b9392505050565b610f3d8062000bca83390190565b6000602082840312156200090a57600080fd5b5035919050565b634e487b7160e01b600052604160045260246000fd5b600082601f8301126200093957600080fd5b813567ffffffffffffffff8082111562000957576200095762000911565b604051601f8301601f19908116603f0116810190828211818310171562000982576200098262000911565b816040528381528660208588010111156200099c57600080fd5b836020870160208301376000602085830101528094505050505092915050565b60008060008060808587031215620009d357600080fd5b843567ffffffffffffffff80821115620009ec57600080fd5b620009fa8883890162000927565b9550602087013591508082111562000a1157600080fd5b5062000a208782880162000927565b935050604085013560ff8116811462000a3857600080fd5b9396929550929360600135925050565b60006020828403121562000a5b57600080fd5b81356001600160a01b0381168114620008e257600080fd5b6020808252602d908201527f5374616e64617264546f6b656e466163746f72793a2063616c6c65722069732060408201526c3737ba103a34329037bbb732b960991b606082015260800190565b6000815180845260005b8181101562000ae85760208185018101518683018201520162000aca565b8181111562000afb576000602083870101525b50601f01601f19169290920160200192915050565b60a08152600062000b2560a083018862000ac0565b828103602084015262000b39818862000ac0565b60ff969096166040840152505060608101929092526001600160a01b031660809091015292915050565b60808152600062000b78608083018762000ac0565b828103602084015262000b8c818762000ac0565b60ff95909516604084015250506060015292915050565b60008282101562000bc457634e487b7160e01b600052601160045260246000fd5b50039056fe60806040523480156200001157600080fd5b5060405162000f3d38038062000f3d83398101604081905262000034916200044f565b60008551116200009d5760405162461bcd60e51b815260206004820152602960248201527f53696d706c655374616e64617264546f6b656e3a206e616d652063616e6e6f7460448201526820626520656d70747960b81b60648201526084015b60405180910390fd5b6000845111620001045760405162461bcd60e51b815260206004820152602b60248201527f53696d706c655374616e64617264546f6b656e3a2073796d626f6c2063616e6e60448201526a6f7420626520656d70747960a81b606482015260840162000094565b6001600160a01b038116620001765760405162461bcd60e51b815260206004820152603160248201527f53696d706c655374616e64617264546f6b656e3a206f776e65722063616e6e6f60448201527074206265207a65726f206164647265737360781b606482015260840162000094565b60008211620001ee5760405162461bcd60e51b815260206004820152603860248201527f53696d706c655374616e64617264546f6b656e3a20746f74616c20737570706c60448201527f79206d7573742062652067726561746572207468616e20300000000000000000606482015260840162000094565b845162000203906003906020880190620002dc565b50835162000219906004906020870190620002dc565b50600580546001600160a01b038316610100026001600160a81b031990911660ff861617179055620002666200025184600a62000612565b83620002c560201b6200034a1790919060201c565b60028190556001600160a01b03821660008181526020818152604080832085905551938452919290917fddf252ad1be2c89b69c2b068fc378daa952ba7f163c4a11628f55a4df523b3ef910160405180910390a3505050505062000682565b6000620002d3828462000623565b90505b92915050565b828054620002ea9062000645565b90600052602060002090601f0160209004810192826200030e576000855562000359565b82601f106200032957805160ff191683800117855562000359565b8280016001018555821562000359579182015b82811115620003595782518255916020019190600101906200033c565b50620003679291506200036b565b5090565b5b808211156200036757600081556001016200036c565b634e487b7160e01b600052604160045260246000fd5b600082601f830112620003aa57600080fd5b81516001600160401b0380821115620003c757620003c762000382565b604051601f8301601f19908116603f01168101908282118183101715620003f257620003f262000382565b816040528381526020925086838588010111156200040f57600080fd5b600091505b8382101562000433578582018301518183018401529082019062000414565b83821115620004455760008385830101525b9695505050505050565b600080600080600060a086880312156200046857600080fd5b85516001600160401b03808211156200048057600080fd5b6200048e89838a0162000398565b96506020880151915080821115620004a557600080fd5b50620004b48882890162000398565b945050604086015160ff81168114620004cc57600080fd5b6060870151608088015191945092506001600160a01b0381168114620004f157600080fd5b809150509295509295909350565b634e487b7160e01b600052601160045260246000fd5b600181815b80851115620005565781600019048211156200053a576200053a620004ff565b808516156200054857918102915b93841c93908002906200051a565b509250929050565b6000826200056f57506001620002d6565b816200057e57506000620002d6565b8160018114620005975760028114620005a257620005c2565b6001915050620002d6565b60ff841115620005b657620005b6620004ff565b50506001821b620002d6565b5060208310610133831016604e8410600b8410161715620005e7575081810a620002d6565b620005f3838362000515565b80600019048211156200060a576200060a620004ff565b029392505050565b6000620002d360ff8416836200055e565b6000816000190483118215151615620006405762000640620004ff565b500290565b600181811c908216806200065a57607f821691505b602082108114156200067c57634e487b7160e01b600052602260045260246000fd5b50919050565b6108ab80620006926000396000f3fe608060405234801561001057600080fd5b506004361061009e5760003560e01c806370a082311161006657806370a082311461011e5780638da5cb5b1461014757806395d89b4114610170578063a9059cbb14610178578063dd62ed3e1461018b57600080fd5b806306fdde03146100a3578063095ea7b3146100c157806318160ddd146100e457806323b872dd146100f6578063313ce56714610109575b600080fd5b6100ab6101c4565b6040516100b891906106b1565b60405180910390f35b6100d46100cf366004610722565b610256565b60405190151581526020016100b8565b6002545b6040519081526020016100b8565b6100d461010436600461074c565b61026c565b60055460405160ff90911681526020016100b8565b6100e861012c366004610788565b6001600160a01b031660009081526020819052604090205490565b60055461010090046001600160a01b03166040516001600160a01b0390911681526020016100b8565b6100ab61032e565b6100d4610186366004610722565b61033d565b6100e86101993660046107a3565b6001600160a01b03918216600090815260016020908152604080832093909416825291909152205490565b6060600380546101d3906107d6565b80601f01602080910402602001604051908101604052809291908181526020018280546101ff906107d6565b801561024c5780601f106102215761010080835404028352916020019161024c565b820191906000526020600020905b81548152906001019060200180831161022f57829003601f168201915b5050505050905090565b600061026333848461035d565b50600192915050565b6001600160a01b0383166000908152600160209081526040808320338452909152812054828110156103045760405162461bcd60e51b815260206004820152603660248201527f53696d706c655374616e64617264546f6b656e3a207472616e7366657220616d6044820152756f756e74206578636565647320616c6c6f77616e636560501b60648201526084015b60405180910390fd5b61030f85858561049e565b610323853361031e8487610699565b61035d565b506001949350505050565b6060600480546101d3906107d6565b600061026333848461049e565b60006103568284610827565b9392505050565b6001600160a01b0383166103ce5760405162461bcd60e51b815260206004820152603260248201527f53696d706c655374616e64617264546f6b656e3a20617070726f76652066726f6044820152716d20746865207a65726f206164647265737360701b60648201526084016102fb565b6001600160a01b03821661043d5760405162461bcd60e51b815260206004820152603060248201527f53696d706c655374616e64617264546f6b656e3a20617070726f766520746f2060448201526f746865207a65726f206164647265737360801b60648201526084016102fb565b6001600160a01b0383811660008181526001602090815260408083209487168084529482529182902085905590518481527f8c5be1e5ebec7d5bd14f71427d1e84f3dd0314c0f7b2291e5b200ac8c7c3b925910160405180910390a3505050565b6001600160a01b0383166105105760405162461bcd60e51b815260206004820152603360248201527f53696d706c655374616e64617264546f6b656e3a207472616e736665722066726044820152726f6d20746865207a65726f206164647265737360681b60648201526084016102fb565b6001600160a01b0382166105805760405162461bcd60e51b815260206004820152603160248201527f53696d706c655374616e64617264546f6b656e3a207472616e7366657220746f60448201527020746865207a65726f206164647265737360781b60648201526084016102fb565b6001600160a01b038316600090815260208190526040902054818110156106065760405162461bcd60e51b815260206004820152603460248201527f53696d706c655374616e64617264546f6b656e3a207472616e7366657220616d6044820152736f756e7420657863656564732062616c616e636560601b60648201526084016102fb565b6106108183610699565b6001600160a01b03808616600090815260208190526040808220939093559085168152205461063f90836106a5565b6001600160a01b038481166000818152602081815260409182902094909455518581529092918716917fddf252ad1be2c89b69c2b068fc378daa952ba7f163c4a11628f55a4df523b3ef910160405180910390a350505050565b60006103568284610846565b6000610356828461085d565b600060208083528351808285015260005b818110156106de578581018301518582016040015282016106c2565b818111156106f0576000604083870101525b50601f01601f1916929092016040019392505050565b80356001600160a01b038116811461071d57600080fd5b919050565b6000806040838503121561073557600080fd5b61073e83610706565b946020939093013593505050565b60008060006060848603121561076157600080fd5b61076a84610706565b925061077860208501610706565b9150604084013590509250925092565b60006020828403121561079a57600080fd5b61035682610706565b600080604083850312156107b657600080fd5b6107bf83610706565b91506107cd60208401610706565b90509250929050565b600181811c908216806107ea57607f821691505b6020821081141561080b57634e487b7160e01b600052602260045260246000fd5b50919050565b634e487b7160e01b600052601160045260246000fd5b600081600019048311821515161561084157610841610811565b500290565b60008282101561085857610858610811565b500390565b6000821982111561087057610870610811565b50019056fea2646970667358221220c89c50dfb34a3d3568a87685c344f04847ffe3a9aaf5114206a6f432f3348de564736f6c634300080c0033a264697066735822122044c92386cf395d42e2c065aa7a5999158881366f10c19d9206ebea7311ee85b364736f6c634300080c0033",
  "linkReferences": {},
  "deployedLinkReferences": {}
}