{
  "_format": "hh-sol-artifact-1",
  "contractName": "TokenFactoryManager",
  "sourceName": "contracts/factories/token/TokenFactoryManager.sol",
  "abi": [
    {
      "anonymous": false,
      "inputs": [
        {
          "indexed": true,
          "internalType": "address",
          "name": "previousOwner",
          "type": "address"
        },
        {
          "indexed": true,
          "internalType": "address",
          "name": "newOwner",
          "type": "address"
        }
      ],
      "name": "OwnershipTransferred",
      "type": "event"
    },
    {
      "inputs": [
        {
          "internalType": "address[]",
          "name": "factories",
          "type": "address[]"
        }
      ],
      "name": "addTokenFactories",
      "outputs": [],
      "stateMutability": "nonpayable",
      "type": "function"
    },
    {
      "inputs": [
        {
          "internalType": "address",
          "name": "factory",
          "type": "address"
        }
      ],
      "name": "addTokenFactory",
      "outputs": [],
      "stateMutability": "nonpayable",
      "type": "function"
    },
    {
      "inputs": [
        {
          "internalType": "address",
          "name": "owner",
          "type": "address"
        },
        {
          "internalType": "address",
          "name": "token",
          "type": "address"
        },
        {
          "internalType": "uint8",
          "name": "tokenType",
          "type": "uint8"
        }
      ],
      "name": "assignTokensToOwner",
      "outputs": [],
      "stateMutability": "nonpayable",
      "type": "function"
    },
    {
      "inputs": [
        {
          "internalType": "address",
          "name": "owner",
          "type": "address"
        }
      ],
      "name": "getAllTokens",
      "outputs": [
        {
          "internalType": "address[]",
          "name": "",
          "type": "address[]"
        },
        {
          "internalType": "uint8[]",
          "name": "",
          "type": "uint8[]"
        }
      ],
      "stateMutability": "view",
      "type": "function"
    },
    {
      "inputs": [],
      "name": "getAllowedFactories",
      "outputs": [
        {
          "internalType": "address[]",
          "name": "",
          "type": "address[]"
        }
      ],
      "stateMutability": "view",
      "type": "function"
    },
    {
      "inputs": [
        {
          "internalType": "address",
          "name": "owner",
          "type": "address"
        },
        {
          "internalType": "uint256",
          "name": "index",
          "type": "uint256"
        }
      ],
      "name": "getToken",
      "outputs": [
        {
          "internalType": "address",
          "name": "",
          "type": "address"
        },
        {
          "internalType": "uint8",
          "name": "",
          "type": "uint8"
        }
      ],
      "stateMutability": "view",
      "type": "function"
    },
    {
      "inputs": [
        {
          "internalType": "address",
          "name": "owner",
          "type": "address"
        },
        {
          "internalType": "uint8",
          "name": "tokenType",
          "type": "uint8"
        }
      ],
      "name": "getTokensForType",
      "outputs": [
        {
          "internalType": "address[]",
          "name": "",
          "type": "address[]"
        }
      ],
      "stateMutability": "view",
      "type": "function"
    },
    {
      "inputs": [
        {
          "internalType": "address",
          "name": "owner",
          "type": "address"
        },
        {
          "internalType": "address",
          "name": "token",
          "type": "address"
        }
      ],
      "name": "hasTokenForOwner",
      "outputs": [
        {
          "internalType": "bool",
          "name": "",
          "type": "bool"
        }
      ],
      "stateMutability": "view",
      "type": "function"
    },
    {
      "inputs": [
        {
          "internalType": "address",
          "name": "token",
          "type": "address"
        }
      ],
      "name": "isTokenGenerated",
      "outputs": [
        {
          "internalType": "bool",
          "name": "",
          "type": "bool"
        }
      ],
      "stateMutability": "view",
      "type": "function"
    },
    {
      "inputs": [],
      "name": "owner",
      "outputs": [
        {
          "internalType": "address",
          "name": "",
          "type": "address"
        }
      ],
      "stateMutability": "view",
      "type": "function"
    },
    {
      "inputs": [
        {
          "internalType": "address",
          "name": "factory",
          "type": "address"
        }
      ],
      "name": "removeTokenFactory",
      "outputs": [],
      "stateMutability": "nonpayable",
      "type": "function"
    },
    {
      "inputs": [],
      "name": "renounceOwnership",
      "outputs": [],
      "stateMutability": "nonpayable",
      "type": "function"
    },
    {
      "inputs": [
        {
          "internalType": "address",
          "name": "newOwner",
          "type": "address"
        }
      ],
      "name": "transferOwnership",
      "outputs": [],
      "stateMutability": "nonpayable",
      "type": "function"
    }
  ],
  "bytecode": "0x608060405234801561001057600080fd5b5061001a3361001f565b61006f565b600080546001600160a01b038381166001600160a01b0319831681178455604051919092169283917f8be0079c531659141344cd1fd0a4f28419497f9722a3daafe3b4186f6b6457e09190a35050565b610f7b8061007e6000396000f3fe608060405234801561001057600080fd5b50600436106100cf5760003560e01c80634da527a61161008c5780638da5cb5b116100665780638da5cb5b14610202578063937529ef1461021d5780639ce1936514610230578063f2fde38b1461024357600080fd5b80634da527a6146101ab5780635da926ca146101e7578063715018a6146101fa57600080fd5b8063178b6de6146100d457806327db6e64146100fe57806328220dea146101135780633136aef71461012857806343d7cce61461013b5780634c1a7e751461016f575b600080fd5b6100e76100e2366004610c4f565b610256565b6040516100f5929190610cae565b60405180910390f35b6101066103fc565b6040516100f59190610d08565b610126610121366004610d2c565b6104ac565b005b610106610136366004610d6f565b610614565b61014e610149366004610da2565b610800565b604080516001600160a01b03909316835260ff9091166020830152016100f5565b61019b61017d366004610c4f565b6001600160a01b031660009081526005602052604090205460ff1690565b60405190151581526020016100f5565b61019b6101b9366004610dcc565b6001600160a01b03918216600090815260046020908152604080832093909416825291909152205460ff1690565b6101266101f5366004610e0c565b6108b5565b610126610901565b6000546040516001600160a01b0390911681526020016100f5565b61012661022b366004610c4f565b610915565b61012661023e366004610c4f565b610928565b610126610251366004610c4f565b61093b565b6001600160a01b0381166000908152600360205260408120546060918291908167ffffffffffffffff81111561028e5761028e610df6565b6040519080825280602002602001820160405280156102b7578160200160208202803683370190505b50905060008267ffffffffffffffff8111156102d5576102d5610df6565b6040519080825280602002602001820160405280156102fe578160200160208202803683370190505b50905060005b838110156103f0576001600160a01b038716600090815260036020526040902080548290811061033657610336610ed1565b9060005260206000200160000160019054906101000a90046001600160a01b031683828151811061036957610369610ed1565b6001600160a01b0392831660209182029290920181019190915290881660009081526003909152604090208054829081106103a6576103a6610ed1565b600091825260209091200154825160ff909116908390839081106103cc576103cc610ed1565b60ff90921660209283029190910190910152806103e881610efd565b915050610304565b50909590945092505050565b6060600061040a60016109b4565b905060008167ffffffffffffffff81111561042757610427610df6565b604051908082528060200260200182016040528015610450578160200160208202803683370190505b50905060005b828110156104a5576104696001826109be565b82828151811061047b5761047b610ed1565b6001600160a01b03909216602092830291909101909101528061049d81610efd565b915050610456565b5092915050565b6104b76001336109d1565b6105085760405162461bcd60e51b815260206004820152601960248201527f4e6f7420612077686974656c697374656420666163746f72790000000000000060448201526064015b60405180910390fd5b6001600160a01b0380841660009081526004602090815260408083209386168352929052205460ff16156105755760405162461bcd60e51b8152602060048201526014602482015273546f6b656e20616c72656164792065786973747360601b60448201526064016104ff565b6001600160a01b0392831660008181526003602090815260408083208151808301835260ff96871681529688168784018181528254600181810185559387528587209951990180549151909a16610100026001600160a81b031990911698909716979097179590951790965591815260048252848120938152928152838320805460ff1990811684179091556005909152929091208054909216179055565b60606000805b6001600160a01b03851660009081526003602052604090205481101561069f576001600160a01b0385166000908152600360205260409020805460ff861691908390811061066a5761066a610ed1565b60009182526020909120015460ff16141561068d578161068981610efd565b9250505b8061069781610efd565b91505061061a565b5060008167ffffffffffffffff8111156106bb576106bb610df6565b6040519080825280602002602001820160405280156106e4578160200160208202803683370190505b509050816106f55791506107fa9050565b6000805b6001600160a01b0387166000908152600360205260409020548110156107f3576001600160a01b0387166000908152600360205260409020805460ff881691908390811061074957610749610ed1565b60009182526020909120015460ff1614156107e1576001600160a01b038716600090815260036020526040902080548290811061078857610788610ed1565b9060005260206000200160000160019054906101000a90046001600160a01b03168383815181106107bb576107bb610ed1565b6001600160a01b0390921660209283029190910190910152816107dd81610efd565b9250505b806107eb81610efd565b9150506106f9565b5090925050505b92915050565b6001600160a01b038216600090815260036020526040812054819083111561082d575060009050806108ae565b6001600160a01b038416600090815260036020526040902080548490811061085757610857610ed1565b60009182526020808320909101546001600160a01b03878116845260039092526040909220805461010090930491909116918590811061089957610899610ed1565b60009182526020909120015490925060ff1690505b9250929050565b6108bd6109f3565b60005b81518110156108fd576108eb8282815181106108de576108de610ed1565b6020026020010151610928565b806108f581610efd565b9150506108c0565b5050565b6109096109f3565b6109136000610a4d565b565b61091d6109f3565b6108fd600182610a9d565b6109306109f3565b6108fd600182610ab2565b6109436109f3565b6001600160a01b0381166109a85760405162461bcd60e51b815260206004820152602660248201527f4f776e61626c653a206e6577206f776e657220697320746865207a65726f206160448201526564647265737360d01b60648201526084016104ff565b6109b181610a4d565b50565b60006107fa825490565b60006109ca8383610ac7565b9392505050565b6001600160a01b038116600090815260018301602052604081205415156109ca565b6000546001600160a01b031633146109135760405162461bcd60e51b815260206004820181905260248201527f4f776e61626c653a2063616c6c6572206973206e6f7420746865206f776e657260448201526064016104ff565b600080546001600160a01b038381166001600160a01b0319831681178455604051919092169283917f8be0079c531659141344cd1fd0a4f28419497f9722a3daafe3b4186f6b6457e09190a35050565b60006109ca836001600160a01b038416610af1565b60006109ca836001600160a01b038416610be4565b6000826000018281548110610ade57610ade610ed1565b9060005260206000200154905092915050565b60008181526001830160205260408120548015610bda576000610b15600183610f18565b8554909150600090610b2990600190610f18565b9050818114610b8e576000866000018281548110610b4957610b49610ed1565b9060005260206000200154905080876000018481548110610b6c57610b6c610ed1565b6000918252602080832090910192909255918252600188019052604090208390555b8554869080610b9f57610b9f610f2f565b6001900381819060005260206000200160009055905585600101600086815260200190815260200160002060009055600193505050506107fa565b60009150506107fa565b6000818152600183016020526040812054610c2b575081546001818101845560008481526020808220909301849055845484825282860190935260409020919091556107fa565b5060006107fa565b80356001600160a01b0381168114610c4a57600080fd5b919050565b600060208284031215610c6157600080fd5b6109ca82610c33565b600081518084526020808501945080840160005b83811015610ca35781516001600160a01b031687529582019590820190600101610c7e565b509495945050505050565b604081526000610cc16040830185610c6a565b82810360208481019190915284518083528582019282019060005b81811015610cfb57845160ff1683529383019391830191600101610cdc565b5090979650505050505050565b6020815260006109ca6020830184610c6a565b803560ff81168114610c4a57600080fd5b600080600060608486031215610d4157600080fd5b610d4a84610c33565b9250610d5860208501610c33565b9150610d6660408501610d1b565b90509250925092565b60008060408385031215610d8257600080fd5b610d8b83610c33565b9150610d9960208401610d1b565b90509250929050565b60008060408385031215610db557600080fd5b610dbe83610c33565b946020939093013593505050565b60008060408385031215610ddf57600080fd5b610de883610c33565b9150610d9960208401610c33565b634e487b7160e01b600052604160045260246000fd5b60006020808385031215610e1f57600080fd5b823567ffffffffffffffff80821115610e3757600080fd5b818501915085601f830112610e4b57600080fd5b813581811115610e5d57610e5d610df6565b8060051b604051601f19603f83011681018181108582111715610e8257610e82610df6565b604052918252848201925083810185019188831115610ea057600080fd5b938501935b82851015610ec557610eb685610c33565b84529385019392850192610ea5565b98975050505050505050565b634e487b7160e01b600052603260045260246000fd5b634e487b7160e01b600052601160045260246000fd5b6000600019821415610f1157610f11610ee7565b5060010190565b600082821015610f2a57610f2a610ee7565b500390565b634e487b7160e01b600052603160045260246000fdfea2646970667358221220ee2e148be255039e5e325b60d1d07625c1d63296e9915f2855ea6cd5173dc48464736f6c634300080c0033",
  "linkReferences": {},
  "deployedLinkReferences": {}
}