{
  "_format": "hh-sol-artifact-1",
  "contractName": "Fairlaunch",
  "sourceName": "contracts/presale/Fairlaunch.sol",
  "abi": [
    {
      "inputs": [
        {
          "internalType": "address",
          "name": "_owner",
          "type": "address"
        },
        {
          "internalType": "address",
          "name": "_saleToken",
          "type": "address"
        },
        {
          "internalType": "address",
          "name": "_baseToken",
          "type": "address"
        },
        {
          "internalType": "bool",
          "name": "_isNative",
          "type": "bool"
        },
        {
          "internalType": "uint256",
          "name": "_buybackRate",
          "type": "uint256"
        },
        {
          "internalType": "bool",
          "name": "_isWhitelist",
          "type": "bool"
        },
        {
          "internalType": "uint256",
          "name": "_sellingAmount",
          "type": "uint256"
        },
        {
          "internalType": "uint256",
          "name": "_softCap",
          "type": "uint256"
        },
        {
          "internalType": "uint256",
          "name": "_liquidityPercent",
          "type": "uint256"
        },
        {
          "internalType": "uint256",
          "name": "_fairlaunchStart",
          "type": "uint256"
        },
        {
          "internalType": "uint256",
          "name": "_fairlaunchEnd",
          "type": "uint256"
        }
      ],
      "stateMutability": "nonpayable",
      "type": "constructor"
    },
    {
      "anonymous": false,
      "inputs": [],
      "name": "FairlaunchCancelled",
      "type": "event"
    },
    {
      "anonymous": false,
      "inputs": [
        {
          "indexed": true,
          "internalType": "address",
          "name": "owner",
          "type": "address"
        },
        {
          "indexed": true,
          "internalType": "address",
          "name": "fairlaunch",
          "type": "address"
        }
      ],
      "name": "FairlaunchCreated",
      "type": "event"
    },
    {
      "anonymous": false,
      "inputs": [
        {
          "indexed": false,
          "internalType": "uint256",
          "name": "raisedAmount",
          "type": "uint256"
        },
        {
          "indexed": false,
          "internalType": "uint256",
          "name": "liquidityAmount",
          "type": "uint256"
        }
      ],
      "name": "FairlaunchFinalized",
      "type": "event"
    },
    {
      "anonymous": false,
      "inputs": [
        {
          "indexed": true,
          "internalType": "address",
          "name": "lpToken",
          "type": "address"
        },
        {
          "indexed": false,
          "internalType": "uint256",
          "name": "amount",
          "type": "uint256"
        }
      ],
      "name": "LPTokensBurned",
      "type": "event"
    },
    {
      "anonymous": false,
      "inputs": [
        {
          "indexed": true,
          "internalType": "address",
          "name": "user",
          "type": "address"
        },
        {
          "indexed": false,
          "internalType": "uint256",
          "name": "baseAmount",
          "type": "uint256"
        },
        {
          "indexed": false,
          "internalType": "uint256",
          "name": "tokenAmount",
          "type": "uint256"
        }
      ],
      "name": "Participated",
      "type": "event"
    },
    {
      "anonymous": false,
      "inputs": [
        {
          "indexed": true,
          "internalType": "address",
          "name": "referral",
          "type": "address"
        },
        {
          "indexed": false,
          "internalType": "uint256",
          "name": "amount",
          "type": "uint256"
        }
      ],
      "name": "ReferralFeePaid",
      "type": "event"
    },
    {
      "anonymous": false,
      "inputs": [
        {
          "indexed": true,
          "internalType": "address",
          "name": "user",
          "type": "address"
        },
        {
          "indexed": false,
          "internalType": "uint256",
          "name": "amount",
          "type": "uint256"
        }
      ],
      "name": "RefundClaimed",
      "type": "event"
    },
    {
      "anonymous": false,
      "inputs": [
        {
          "indexed": true,
          "internalType": "address",
          "name": "owner",
          "type": "address"
        },
        {
          "indexed": false,
          "internalType": "uint256",
          "name": "amount",
          "type": "uint256"
        }
      ],
      "name": "RemainingFundsWithdrawn",
      "type": "event"
    },
    {
      "anonymous": false,
      "inputs": [
        {
          "indexed": true,
          "internalType": "address",
          "name": "user",
          "type": "address"
        },
        {
          "indexed": false,
          "internalType": "uint256",
          "name": "amount",
          "type": "uint256"
        }
      ],
      "name": "TokensClaimed",
      "type": "event"
    },
    {
      "inputs": [],
      "name": "DEAD_ADDRESS",
      "outputs": [
        {
          "internalType": "address",
          "name": "",
          "type": "address"
        }
      ],
      "stateMutability": "view",
      "type": "function"
    },
    {
      "inputs": [
        {
          "internalType": "address[]",
          "name": "users",
          "type": "address[]"
        }
      ],
      "name": "addToWhitelist",
      "outputs": [],
      "stateMutability": "nonpayable",
      "type": "function"
    },
    {
      "inputs": [
        {
          "internalType": "address",
          "name": "user",
          "type": "address"
        }
      ],
      "name": "buyers",
      "outputs": [
        {
          "internalType": "uint256",
          "name": "",
          "type": "uint256"
        }
      ],
      "stateMutability": "view",
      "type": "function"
    },
    {
      "inputs": [],
      "name": "calculateCurrentRate",
      "outputs": [
        {
          "internalType": "uint256",
          "name": "",
          "type": "uint256"
        }
      ],
      "stateMutability": "view",
      "type": "function"
    },
    {
      "inputs": [
        {
          "internalType": "uint256",
          "name": "baseAmount",
          "type": "uint256"
        }
      ],
      "name": "calculateTokenAmount",
      "outputs": [
        {
          "internalType": "uint256",
          "name": "",
          "type": "uint256"
        }
      ],
      "stateMutability": "view",
      "type": "function"
    },
    {
      "inputs": [
        {
          "internalType": "address",
          "name": "user",
          "type": "address"
        },
        {
          "internalType": "uint256",
          "name": "amount",
          "type": "uint256"
        }
      ],
      "name": "canParticipate",
      "outputs": [
        {
          "internalType": "bool",
          "name": "",
          "type": "bool"
        },
        {
          "internalType": "string",
          "name": "",
          "type": "string"
        }
      ],
      "stateMutability": "view",
      "type": "function"
    },
    {
      "inputs": [],
      "name": "cancelFairlaunch",
      "outputs": [],
      "stateMutability": "nonpayable",
      "type": "function"
    },
    {
      "inputs": [],
      "name": "cancelled",
      "outputs": [
        {
          "internalType": "bool",
          "name": "",
          "type": "bool"
        }
      ],
      "stateMutability": "view",
      "type": "function"
    },
    {
      "inputs": [],
      "name": "claimRefund",
      "outputs": [],
      "stateMutability": "nonpayable",
      "type": "function"
    },
    {
      "inputs": [],
      "name": "claimTokens",
      "outputs": [],
      "stateMutability": "nonpayable",
      "type": "function"
    },
    {
      "inputs": [],
      "name": "fairlaunchInfo",
      "outputs": [
        {
          "internalType": "address",
          "name": "saleToken",
          "type": "address"
        },
        {
          "internalType": "address",
          "name": "baseToken",
          "type": "address"
        },
        {
          "internalType": "uint256",
          "name": "buybackRate",
          "type": "uint256"
        },
        {
          "internalType": "uint256",
          "name": "sellingAmount",
          "type": "uint256"
        },
        {
          "internalType": "uint256",
          "name": "softCap",
          "type": "uint256"
        },
        {
          "internalType": "uint256",
          "name": "liquidityPercent",
          "type": "uint256"
        },
        {
          "internalType": "uint256",
          "name": "fairlaunchStart",
          "type": "uint256"
        },
        {
          "internalType": "uint256",
          "name": "fairlaunchEnd",
          "type": "uint256"
        },
        {
          "internalType": "bool",
          "name": "isNative",
          "type": "bool"
        },
        {
          "internalType": "bool",
          "name": "isWhitelist",
          "type": "bool"
        }
      ],
      "stateMutability": "view",
      "type": "function"
    },
    {
      "inputs": [],
      "name": "finalize",
      "outputs": [],
      "stateMutability": "nonpayable",
      "type": "function"
    },
    {
      "inputs": [],
      "name": "finalized",
      "outputs": [
        {
          "internalType": "bool",
          "name": "",
          "type": "bool"
        }
      ],
      "stateMutability": "view",
      "type": "function"
    },
    {
      "inputs": [],
      "name": "getProgress",
      "outputs": [
        {
          "internalType": "uint256",
          "name": "",
          "type": "uint256"
        }
      ],
      "stateMutability": "view",
      "type": "function"
    },
    {
      "inputs": [],
      "name": "getStatus",
      "outputs": [
        {
          "internalType": "enum Fairlaunch.FairlaunchStatus",
          "name": "",
          "type": "uint8"
        }
      ],
      "stateMutability": "view",
      "type": "function"
    },
    {
      "inputs": [
        {
          "internalType": "address",
          "name": "user",
          "type": "address"
        }
      ],
      "name": "isWhitelisted",
      "outputs": [
        {
          "internalType": "bool",
          "name": "",
          "type": "bool"
        }
      ],
      "stateMutability": "view",
      "type": "function"
    },
    {
      "inputs": [],
      "name": "lockDelay",
      "outputs": [
        {
          "internalType": "uint256",
          "name": "",
          "type": "uint256"
        }
      ],
      "stateMutability": "view",
      "type": "function"
    },
    {
      "inputs": [],
      "name": "lpTokenAddress",
      "outputs": [
        {
          "internalType": "address",
          "name": "",
          "type": "address"
        }
      ],
      "stateMutability": "view",
      "type": "function"
    },
    {
      "inputs": [],
      "name": "lpTokenAmount",
      "outputs": [
        {
          "internalType": "uint256",
          "name": "",
          "type": "uint256"
        }
      ],
      "stateMutability": "view",
      "type": "function"
    },
    {
      "inputs": [],
      "name": "lpTokensBurned",
      "outputs": [
        {
          "internalType": "bool",
          "name": "",
          "type": "bool"
        }
      ],
      "stateMutability": "view",
      "type": "function"
    },
    {
      "inputs": [],
      "name": "owner",
      "outputs": [
        {
          "internalType": "address",
          "name": "",
          "type": "address"
        }
      ],
      "stateMutability": "view",
      "type": "function"
    },
    {
      "inputs": [],
      "name": "participantCount",
      "outputs": [
        {
          "internalType": "uint256",
          "name": "",
          "type": "uint256"
        }
      ],
      "stateMutability": "view",
      "type": "function"
    },
    {
      "inputs": [
        {
          "internalType": "address",
          "name": "",
          "type": "address"
        }
      ],
      "name": "participants",
      "outputs": [
        {
          "internalType": "uint256",
          "name": "baseContribution",
          "type": "uint256"
        },
        {
          "internalType": "uint256",
          "name": "tokenAllocation",
          "type": "uint256"
        },
        {
          "internalType": "bool",
          "name": "claimed",
          "type": "bool"
        }
      ],
      "stateMutability": "view",
      "type": "function"
    },
    {
      "inputs": [
        {
          "internalType": "uint256",
          "name": "amount",
          "type": "uint256"
        }
      ],
      "name": "participate",
      "outputs": [],
      "stateMutability": "payable",
      "type": "function"
    },
    {
      "inputs": [],
      "name": "payReferralFee",
      "outputs": [],
      "stateMutability": "payable",
      "type": "function"
    },
    {
      "inputs": [],
      "name": "presaleStatus",
      "outputs": [
        {
          "internalType": "uint256",
          "name": "",
          "type": "uint256"
        }
      ],
      "stateMutability": "view",
      "type": "function"
    },
    {
      "inputs": [],
      "name": "profitAddress",
      "outputs": [
        {
          "internalType": "address",
          "name": "",
          "type": "address"
        }
      ],
      "stateMutability": "view",
      "type": "function"
    },
    {
      "inputs": [],
      "name": "raisedAmount",
      "outputs": [
        {
          "internalType": "uint256",
          "name": "",
          "type": "uint256"
        }
      ],
      "stateMutability": "view",
      "type": "function"
    },
    {
      "inputs": [],
      "name": "referralAddress",
      "outputs": [
        {
          "internalType": "address",
          "name": "",
          "type": "address"
        }
      ],
      "stateMutability": "view",
      "type": "function"
    },
    {
      "inputs": [],
      "name": "referralFee",
      "outputs": [
        {
          "internalType": "uint256",
          "name": "",
          "type": "uint256"
        }
      ],
      "stateMutability": "view",
      "type": "function"
    },
    {
      "inputs": [
        {
          "internalType": "address[]",
          "name": "users",
          "type": "address[]"
        }
      ],
      "name": "removeFromWhitelist",
      "outputs": [],
      "stateMutability": "nonpayable",
      "type": "function"
    },
    {
      "inputs": [],
      "name": "router",
      "outputs": [
        {
          "internalType": "contract IKalySwapRouter",
          "name": "",
          "type": "address"
        }
      ],
      "stateMutability": "view",
      "type": "function"
    },
    {
      "inputs": [
        {
          "internalType": "uint256",
          "name": "_delay",
          "type": "uint256"
        }
      ],
      "name": "setLockDelay",
      "outputs": [],
      "stateMutability": "nonpayable",
      "type": "function"
    },
    {
      "inputs": [
        {
          "internalType": "address",
          "name": "_profitAddress",
          "type": "address"
        }
      ],
      "name": "setProfitAddress",
      "outputs": [],
      "stateMutability": "nonpayable",
      "type": "function"
    },
    {
      "inputs": [
        {
          "internalType": "address",
          "name": "_referralAddress",
          "type": "address"
        },
        {
          "internalType": "uint256",
          "name": "_referralFee",
          "type": "uint256"
        }
      ],
      "name": "setReferral",
      "outputs": [],
      "stateMutability": "nonpayable",
      "type": "function"
    },
    {
      "inputs": [
        {
          "internalType": "address",
          "name": "_router",
          "type": "address"
        }
      ],
      "name": "setRouter",
      "outputs": [],
      "stateMutability": "nonpayable",
      "type": "function"
    },
    {
      "inputs": [],
      "name": "tokenInfo",
      "outputs": [
        {
          "internalType": "string",
          "name": "name",
          "type": "string"
        },
        {
          "internalType": "string",
          "name": "symbol",
          "type": "string"
        },
        {
          "internalType": "uint256",
          "name": "totalSupply",
          "type": "uint256"
        },
        {
          "internalType": "uint8",
          "name": "decimals",
          "type": "uint8"
        }
      ],
      "stateMutability": "view",
      "type": "function"
    },
    {
      "inputs": [],
      "name": "tokenUnlockTime",
      "outputs": [
        {
          "internalType": "uint256",
          "name": "",
          "type": "uint256"
        }
      ],
      "stateMutability": "view",
      "type": "function"
    },
    {
      "inputs": [
        {
          "internalType": "address",
          "name": "newOwner",
          "type": "address"
        }
      ],
      "name": "transferOwnership",
      "outputs": [],
      "stateMutability": "nonpayable",
      "type": "function"
    },
    {
      "inputs": [
        {
          "internalType": "address",
          "name": "",
          "type": "address"
        }
      ],
      "name": "whitelist",
      "outputs": [
        {
          "internalType": "bool",
          "name": "",
          "type": "bool"
        }
      ],
      "stateMutability": "view",
      "type": "function"
    },
    {
      "inputs": [],
      "name": "withdrawRemainingTokens",
      "outputs": [],
      "stateMutability": "nonpayable",
      "type": "function"
    }
  ],
  "bytecode": "0x60806040523480156200001157600080fd5b50604051620035883803806200358883398101604081905262000034916200069d565b60016000556001600160a01b038b16620000855760405162461bcd60e51b815260206004820152600d60248201526c24b73b30b634b21037bbb732b960991b60448201526064015b60405180910390fd5b6001600160a01b038a16620000d25760405162461bcd60e51b815260206004820152601260248201527124b73b30b634b21039b0b632903a37b5b2b760711b60448201526064016200007c565b60008711620001245760405162461bcd60e51b815260206004820152601460248201527f496e76616c6964206275796261636b207261746500000000000000000000000060448201526064016200007c565b60008511620001765760405162461bcd60e51b815260206004820152601660248201527f496e76616c69642073656c6c696e6720616d6f756e740000000000000000000060448201526064016200007c565b60008411620001bb5760405162461bcd60e51b815260206004820152601060248201526f0496e76616c696420736f6674206361760841b60448201526064016200007c565b600083118015620001cd575060648311155b6200021b5760405162461bcd60e51b815260206004820152601960248201527f496e76616c6964206c69717569646974792070657263656e740000000000000060448201526064016200007c565b428211620002615760405162461bcd60e51b8152602060048201526012602482015271496e76616c69642073746172742074696d6560701b60448201526064016200007c565b818111620002a55760405162461bcd60e51b815260206004820152601060248201526f496e76616c696420656e642074696d6560801b60448201526064016200007c565b600180546001600160a01b03808e166001600160a01b03199283161790925560408051610140810182528d8416808252938d16602082018190528183018c9052606082018a905260808083018a905260a0830189905260c0830188905260e083018790528d15156101008481018290528d1515610120909501859052600280548816891790556003805490971690931790955560048d905560058b905560068a9055600789905560088890556009879055600a80549390920261ff001990951661ffff19909316929092179390931790925580519182018082526306fdde0360e01b9052518c9282916306fdde03906084808501916000918187030181865afa158015620003b7573d6000803e3d6000fd5b505050506040513d6000823e601f3d908101601f19168201604052620003e1919081019062000760565b8152602001826001600160a01b03166395d89b416040518163ffffffff1660e01b8152600401600060405180830381865afa15801562000425573d6000803e3d6000fd5b505050506040513d6000823e601f3d908101601f191682016040526200044f919081019062000760565b8152602001826001600160a01b03166318160ddd6040518163ffffffff1660e01b8152600401602060405180830381865afa15801562000493573d6000803e3d6000fd5b505050506040513d601f19601f82011682018060405250810190620004b991906200083c565b8152602001826001600160a01b031663313ce5676040518163ffffffff1660e01b8152600401602060405180830381865afa158015620004fd573d6000803e3d6000fd5b505050506040513d601f19601f8201168201806040525081019062000523919062000856565b60ff16905280518051600b916200054091839160200190620005c9565b5060208281015180516200055b9260018501920190620005c9565b5060408281015160028301556060909201516003909101805460ff191660ff9092169190911790555130906001600160a01b038e16907f5a67b4bb8e7100385d5cced26a5163e0fff0e6b979e8b57a62294060b9205b0290600090a3505050505050505050505050620008bf565b828054620005d79062000882565b90600052602060002090601f016020900481019282620005fb576000855562000646565b82601f106200061657805160ff191683800117855562000646565b8280016001018555821562000646579182015b828111156200064657825182559160200191906001019062000629565b506200065492915062000658565b5090565b5b8082111562000654576000815560010162000659565b80516001600160a01b03811681146200068757600080fd5b919050565b805180151581146200068757600080fd5b60008060008060008060008060008060006101608c8e031215620006c057600080fd5b620006cb8c6200066f565b9a50620006db60208d016200066f565b9950620006eb60408d016200066f565b9850620006fb60608d016200068c565b975060808c015196506200071260a08d016200068c565b955060c08c0151945060e08c015193506101008c015192506101208c015191506101408c015190509295989b509295989b9093969950565b634e487b7160e01b600052604160045260246000fd5b600060208083850312156200077457600080fd5b82516001600160401b03808211156200078c57600080fd5b818501915085601f830112620007a157600080fd5b815181811115620007b657620007b66200074a565b604051601f8201601f19908116603f01168101908382118183101715620007e157620007e16200074a565b816040528281528886848701011115620007fa57600080fd5b600093505b828410156200081e5784840186015181850187015292850192620007ff565b82841115620008305760008684830101525b98975050505050505050565b6000602082840312156200084f57600080fd5b5051919050565b6000602082840312156200086957600080fd5b815160ff811681146200087b57600080fd5b9392505050565b600181811c908216806200089757607f821691505b60208210811415620008b957634e487b7160e01b600052602260045260246000fd5b50919050565b612cb980620008cf6000396000f3fe6080604052600436106102465760003560e01c80638b754bce11610139578063b3f05b97116100b6578063ca1a961d1161007a578063ca1a961d14610730578063da13d1d214610750578063dedae24714610765578063f2fde38b1461077b578063f5ae497a1461079b578063f887ea40146107bb57600080fd5b8063b3f05b97146106b0578063b5545a3c146106cf578063c0d78655146106e4578063c59ee1dc14610704578063c943dc401461071a57600080fd5b80639b19251a116100fd5780639b19251a146105835780639fa36240146105b3578063a24bcf461461065b578063acfb23551461067b578063ae5e64061461069057600080fd5b80638b754bce146104e95780638da5cb5b146104fe578063939c44561461051e57806397a993aa146105335780639a82a09a1461056957600080fd5b80634e6fd6c4116101c75780637f6497831161018b5780637f6497831461046b57806382cf114c1461048b578063845c9306146104ab57806384ae2bc6146104be5780638afbf669146104d457600080fd5b80634e6fd6c4146103ee578063548db17414610404578063591daa5f14610424578063668f6b211461042c5780636addb6631461044657600080fd5b806336acbe6b1161020e57806336acbe6b1461035a5780633af32abf1461037057806348c54b9d146103a05780634bb278f3146103b75780634e69d560146103cc57600080fd5b806305a30fee1461024b57806309e69ede14610282578063123702e2146102de57806315a88d2214610316578063362f04c014610336575b600080fd5b34801561025757600080fd5b5061026b61026636600461277e565b6107e0565b604051610279929190612802565b60405180910390f35b34801561028e57600080fd5b506102c161029d366004612825565b601a6020526000908152604090208054600182015460029092015490919060ff1683565b604080519384526020840192909252151590820152606001610279565b3480156102ea57600080fd5b506016546102fe906001600160a01b031681565b6040516001600160a01b039091168152602001610279565b34801561032257600080fd5b506018546102fe906001600160a01b031681565b34801561034257600080fd5b5061034c60105481565b604051908152602001610279565b34801561036657600080fd5b5061034c60145481565b34801561037c57600080fd5b5061039061038b366004612825565b6108c7565b6040519015158152602001610279565b3480156103ac57600080fd5b506103b5610900565b005b3480156103c357600080fd5b506103b5610b2f565b3480156103d857600080fd5b506103e1611014565b6040516102799190612858565b3480156103fa57600080fd5b506102fe61dead81565b34801561041057600080fd5b506103b561041f366004612880565b611074565b6103b5611115565b34801561043857600080fd5b506015546103909060ff1681565b34801561045257600080fd5b5061045b611227565b60405161027994939291906128f5565b34801561047757600080fd5b506103b5610486366004612880565b611357565b34801561049757600080fd5b506103b56104a6366004612825565b6113f3565b6103b56104b9366004612935565b61148e565b3480156104ca57600080fd5b5061034c60195481565b3480156104e057600080fd5b506103b561160d565b3480156104f557600080fd5b5061034c611881565b34801561050a57600080fd5b506001546102fe906001600160a01b031681565b34801561052a57600080fd5b5061034c6118ca565b34801561053f57600080fd5b5061034c61054e366004612825565b6001600160a01b03166000908152601a602052604090205490565b34801561057557600080fd5b506011546103909060ff1681565b34801561058f57600080fd5b5061039061059e366004612825565b601b6020526000908152604090205460ff1681565b3480156105bf57600080fd5b50600254600354600454600554600654600754600854600954600a54610602986001600160a01b0390811698169695949392919060ff808216916101009004168a565b604080516001600160a01b039b8c1681529a90991660208b0152978901969096526060880194909452608087019290925260a086015260c085015260e08401521515610100830152151561012082015261014001610279565b34801561066757600080fd5b5061034c610676366004612935565b6118f0565b34801561068757600080fd5b5061034c61193c565b34801561069c57600080fd5b506103b56106ab36600461277e565b611a1d565b3480156106bc57600080fd5b5060115461039090610100900460ff1681565b3480156106db57600080fd5b506103b5611a95565b3480156106f057600080fd5b506103b56106ff366004612825565b611c53565b34801561071057600080fd5b5061034c600f5481565b34801561072657600080fd5b5061034c60175481565b34801561073c57600080fd5b506103b561074b366004612935565b611d14565b34801561075c57600080fd5b506103b5611d6b565b34801561077157600080fd5b5061034c60125481565b34801561078757600080fd5b506103b5610796366004612825565b611e25565b3480156107a757600080fd5b506013546102fe906001600160a01b031681565b3480156107c757600080fd5b506015546102fe9061010090046001600160a01b031681565b6000606060016107ee611014565b60058111156107ff576107ff612842565b1461083a575050604080518082019091526015815274466169726c61756e6368206e6f742061637469766560581b60208201526000906108c0565b610843846108c7565b61087757505060408051808201909152600f81526e139bdd081dda1a5d195b1a5cdd1959608a1b60208201526000906108c0565b826108ab57505060408051808201909152600e81526d125b9d985b1a5908185b5bdd5b9d60921b60208201526000906108c0565b50506040805160208101909152600081526001905b9250929050565b600a54600090610100900460ff166108e157506001919050565b506001600160a01b03166000908152601b602052604090205460ff1690565b6002600054141561092c5760405162461bcd60e51b81526004016109239061294e565b60405180910390fd5b6002600055600561093b611014565b600581111561094c5761094c612842565b146109895760405162461bcd60e51b815260206004820152600d60248201526c139bdd08199a5b985b1a5e9959609a1b6044820152606401610923565b6012544210156109d15760405162461bcd60e51b8152602060048201526013602482015272151bdad95b9cc81cdd1a5b1b081b1bd8dad959606a1b6044820152606401610923565b336000908152601a602052604090208054610a265760405162461bcd60e51b8152602060048201526015602482015274139bc818dbdb9d1c9a589d5d1a5bdb88199bdd5b99605a1b6044820152606401610923565b600281015460ff1615610a6d5760405162461bcd60e51b815260206004820152600f60248201526e105b1c9958591e4818db185a5b5959608a1b6044820152606401610923565b6000610a7c82600001546118f0565b905060008111610ac35760405162461bcd60e51b81526020600482015260126024820152714e6f20746f6b656e7320746f20636c61696d60701b6044820152606401610923565b60018083018290556002808401805460ff191690921790915554610af1906001600160a01b03163383611ebb565b60405181815233907f896e034966eaaf1adc54acc0f257056febbd300c9e47182cf761982cf1f5e4309060200160405180910390a250506001600055565b60026000541415610b525760405162461bcd60e51b81526004016109239061294e565b60026000556001546001600160a01b03163314610b815760405162461bcd60e51b815260040161092390612985565b601154610100900460ff1615610bcd5760405162461bcd60e51b8152602060048201526011602482015270105b1c9958591e48199a5b985b1a5e9959607a1b6044820152606401610923565b6002610bd7611014565b6005811115610be857610be8612842565b14610c355760405162461bcd60e51b815260206004820152601960248201527f466169726c61756e6368206e6f74207375636365737366756c000000000000006044820152606401610923565b60155461010090046001600160a01b0316610c835760405162461bcd60e51b815260206004820152600e60248201526d149bdd5d195c881b9bdd081cd95d60921b6044820152606401610923565b6000610caa6064610ca4600260050154600f54611fd690919063ffffffff16565b9061205e565b600e54909150600090610ce290610cc59060ff1660126129be565b610cd090600a612ac5565b610ca4610cdb611881565b8590611fd6565b6002546040516370a0823160e01b815230600482015291925082916001600160a01b03909116906370a0823190602401602060405180830381865afa158015610d2f573d6000803e3d6000fd5b505050506040513d601f19601f82011682018060405250810190610d539190612ad4565b1015610dab5760405162461bcd60e51b815260206004820152602160248201527f496e73756666696369656e7420746f6b656e7320666f72206c697175696469746044820152607960f81b6064820152608401610923565b600254601554610dcd916001600160a01b0390811691610100900416836120b9565b600a5460009060ff1615610ea8576015546002546001600160a01b0361010090920482169163801ef55d918691168560008030610e0c42610e10612aed565b60405160e089901b6001600160e01b03191681526001600160a01b039687166004820152602481019590955260448501939093526064840191909152909216608482015260a481019190915260c40160606040518083038185885af1158015610e79573d6000803e3d6000fd5b50505050506040513d601f19601f82011682018060405250810190610e9e9190612b05565b9250610fa5915050565b600354601554610eca916001600160a01b0390811691610100900416856120b9565b6015546003546002546001600160a01b0361010090930483169263e8e337009281169116868660008030610f0042610e10612aed565b60405160e08a901b6001600160e01b03191681526001600160a01b039889166004820152968816602488015260448701959095526064860193909352608485019190915260a484015290921660c482015260e4810191909152610104016060604051808303816000875af1158015610f7c573d6000803e3d6000fd5b505050506040513d601f19601f82011682018060405250810190610fa09190612b05565b925050505b610fae816121cd565b6011805461ff001916610100179055601754610fcb90429061247c565b601255600f5460408051918252602082018590527f65c92866b67fc850ec21d591fbc2d967ea10d00f4600baec8b6e6b744d89b2ca910160405180910390a15050600160005550565b60115460009060ff16156110285750600490565b601154610100900460ff161561103e5750600590565b60085442101561104e5750600090565b600954421161105d5750600190565b600654600f541061106e5750600290565b50600390565b6001546001600160a01b0316331461109e5760405162461bcd60e51b815260040161092390612985565b60005b81811015611110576000601b60008585858181106110c1576110c1612b33565b90506020020160208101906110d69190612825565b6001600160a01b031681526020810191909152604001600020805460ff19169115159190911790558061110881612b49565b9150506110a1565b505050565b6018546001600160a01b031661115f5760405162461bcd60e51b815260206004820152600f60248201526e139bc81c9959995c9c985b081cd95d608a1b6044820152606401610923565b60195434146111a95760405162461bcd60e51b8152602060048201526016602482015275496e636f727265637420726566657272616c2066656560501b6044820152606401610923565b6018546040516001600160a01b03909116903480156108fc02916000818181858888f193505050501580156111e2573d6000803e3d6000fd5b506018546040513481526001600160a01b03909116907f339143a0e6309caafa5c4c55cd7b75d2e49115ce1e88b394e3376814b8507c159060200160405180910390a2565b600b8054819061123690612b64565b80601f016020809104026020016040519081016040528092919081815260200182805461126290612b64565b80156112af5780601f10611284576101008083540402835291602001916112af565b820191906000526020600020905b81548152906001019060200180831161129257829003601f168201915b5050505050908060010180546112c490612b64565b80601f01602080910402602001604051908101604052809291908181526020018280546112f090612b64565b801561133d5780601f106113125761010080835404028352916020019161133d565b820191906000526020600020905b81548152906001019060200180831161132057829003601f168201915b50505050600283015460039093015491929160ff16905084565b6001546001600160a01b031633146113815760405162461bcd60e51b815260040161092390612985565b60005b81811015611110576001601b60008585858181106113a4576113a4612b33565b90506020020160208101906113b99190612825565b6001600160a01b031681526020810191909152604001600020805460ff1916911515919091179055806113eb81612b49565b915050611384565b6001546001600160a01b0316331461141d5760405162461bcd60e51b815260040161092390612985565b6001600160a01b03811661146c5760405162461bcd60e51b8152602060048201526016602482015275496e76616c69642070726f666974206164647265737360501b6044820152606401610923565b601680546001600160a01b0319166001600160a01b0392909216919091179055565b600260005414156114b15760405162461bcd60e51b81526004016109239061294e565b600260005560016114c0611014565b60058111156114d1576114d1612842565b146115165760405162461bcd60e51b8152602060048201526015602482015274466169726c61756e6368206e6f742061637469766560581b6044820152606401610923565b600a5460009060ff16611529578161152b565b345b905060008061153a33846107e0565b9150915081819061155e5760405162461bcd60e51b81526004016109239190612b9f565b50336000908152601a6020526040902080546115865760105461158290600161247c565b6010555b8054611592908561247c565b8155600f546115a1908561247c565b600f55600a5460ff166115c6576003546115c6906001600160a01b03163330876124db565b604080518581526000602082015233917f64ceaa25376a606505a20223863437c73f24c3d44eca9912c49197b4aea536a4910160405180910390a250506001600055505050565b600260005414156116305760405162461bcd60e51b81526004016109239061294e565b60026000556001546001600160a01b0316331461165f5760405162461bcd60e51b815260040161092390612985565b6005611669611014565b600581111561167a5761167a612842565b146116b75760405162461bcd60e51b815260206004820152600d60248201526c139bdd08199a5b985b1a5e9959609a1b6044820152606401610923565b6002546040516370a0823160e01b81523060048201526000916001600160a01b0316906370a0823190602401602060405180830381865afa158015611700573d6000803e3d6000fd5b505050506040513d601f19601f820116820180604052508101906117249190612ad4565b9050801561178c57600254600154611749916001600160a01b03908116911683611ebb565b6001546040518281526001600160a01b03909116907f1e563d9e18af5db6fd44fc692df8325fdf25841bc9ba0ec5ea17f128b12766e39060200160405180910390a25b600a5460009060ff1661180a576003546040516370a0823160e01b81523060048201526001600160a01b03909116906370a0823190602401602060405180830381865afa1580156117e1573d6000803e3d6000fd5b505050506040513d601f19601f820116820180604052508101906118059190612ad4565b61180c565b475b905080156118785760405162461bcd60e51b815260206004820152603360248201527f4261736520746f6b656e73206d7573742073746179206c6f636b6564202d20666044820152726169726c61756e6368207072696e6369706c6560681b6064820152608401610923565b50506001600055565b6000600f54600014156118945750600090565b600f54600e546118c59190610ca4906118b19060ff1660126129be565b6118bc90600a612ac5565b60055490611fd6565b905090565b6006546000906118da5750600090565b600654600f546118c59190610ca4906064611fd6565b6000806118fb611881565b90508061190b5750600092915050565b600e54611935906119209060ff1660126129be565b61192b90600a612ac5565b610ca48584611fd6565b9392505050565b600080611947611014565b9050600081600581111561195d5761195d612842565b141561196b57600091505090565b600181600581111561197f5761197f612842565b141561198d57600191505090565b60028160058111156119a1576119a1612842565b14156119af57600291505090565b60038160058111156119c3576119c3612842565b14156119d157600391505090565b60048160058111156119e5576119e5612842565b14156119f357600491505090565b6005816005811115611a0757611a07612842565b1415611a1557600591505090565b600091505090565b6001546001600160a01b03163314611a475760405162461bcd60e51b815260040161092390612985565b601154610100900460ff1615611a6f5760405162461bcd60e51b815260040161092390612bb2565b601880546001600160a01b0319166001600160a01b039390931692909217909155601955565b60026000541415611ab85760405162461bcd60e51b81526004016109239061294e565b60026000908155611ac7611014565b90506003816005811115611add57611add612842565b1480611afa57506004816005811115611af857611af8612842565b145b611b3e5760405162461bcd60e51b815260206004820152601560248201527411985a5c9b185d5b98da081b9bdd0819985a5b1959605a1b6044820152606401610923565b336000908152601a602052604090208054611b9b5760405162461bcd60e51b815260206004820152601960248201527f4e6f20636f6e747269627574696f6e20746f20726566756e64000000000000006044820152606401610923565b600281015460ff1615611be25760405162461bcd60e51b815260206004820152600f60248201526e105b1c9958591e4818db185a5b5959608a1b6044820152606401610923565b805460028201805460ff19166001179055600354600a54611c14916001600160a01b0316903390849060ff161561260b565b60405181815233907f358fe4192934d3bf28ae181feda1f4bd08ca67f5e2fad55582cce5eb67304ae99060200160405180910390a25050600160005550565b6001546001600160a01b03163314611c7d5760405162461bcd60e51b815260040161092390612985565b6001600160a01b038116611cc45760405162461bcd60e51b815260206004820152600e60248201526d24b73b30b634b2103937baba32b960911b6044820152606401610923565b601154610100900460ff1615611cec5760405162461bcd60e51b815260040161092390612bb2565b601580546001600160a01b0390921661010002610100600160a81b0319909216919091179055565b6001546001600160a01b03163314611d3e5760405162461bcd60e51b815260040161092390612985565b601154610100900460ff1615611d665760405162461bcd60e51b815260040161092390612bb2565b601755565b6001546001600160a01b03163314611d955760405162461bcd60e51b815260040161092390612985565b601154610100900460ff1615611ded5760405162461bcd60e51b815260206004820181905260248201527f43616e6e6f742063616e63656c2061667465722066696e616c697a6174696f6e6044820152606401610923565b6011805460ff191660011790556040517f37171b6dca574471fd4740e66a760632009159ed258d1179ee465e01b91f933090600090a1565b6001546001600160a01b03163314611e4f5760405162461bcd60e51b815260040161092390612985565b6001600160a01b038116611e995760405162461bcd60e51b815260206004820152601160248201527024b73b30b634b2103732bb9037bbb732b960791b6044820152606401610923565b600180546001600160a01b0319166001600160a01b0392909216919091179055565b604080516001600160a01b038481166024830152604480830185905283518084039091018152606490920183526020820180516001600160e01b031663a9059cbb60e01b1790529151600092839290871691611f179190612be7565b6000604051808303816000865af19150503d8060008114611f54576040519150601f19603f3d011682016040523d82523d6000602084013e611f59565b606091505b5091509150818015611f83575080511580611f83575080806020019051810190611f839190612c03565b611fcf5760405162461bcd60e51b815260206004820152601f60248201527f5472616e7366657248656c7065723a205452414e534645525f4641494c4544006044820152606401610923565b5050505050565b600082611fe557506000612058565b6000611ff18385612c25565b905082611ffe8583612c44565b146120555760405162461bcd60e51b815260206004820152602160248201527f536166654d6174683a206d756c7469706c69636174696f6e206f766572666c6f6044820152607760f81b6064820152608401610923565b90505b92915050565b60008082116120af5760405162461bcd60e51b815260206004820152601a60248201527f536166654d6174683a206469766973696f6e206279207a65726f0000000000006044820152606401610923565b6120558284612c44565b604080516001600160a01b038481166024830152604480830185905283518084039091018152606490920183526020820180516001600160e01b031663095ea7b360e01b17905291516000928392908716916121159190612be7565b6000604051808303816000865af19150503d8060008114612152576040519150601f19603f3d011682016040523d82523d6000602084013e612157565b606091505b50915091508180156121815750805115806121815750808060200190518101906121819190612c03565b611fcf5760405162461bcd60e51b815260206004820152601e60248201527f5472616e7366657248656c7065723a20415050524f56455f4641494c454400006044820152606401610923565b600081116122145760405162461bcd60e51b81526020600482015260146024820152732737902628103a37b5b2b739903a3790313ab93760611b6044820152606401610923565b6000601560019054906101000a90046001600160a01b03166001600160a01b031663c45a01556040518163ffffffff1660e01b8152600401602060405180830381865afa158015612269573d6000803e3d6000fd5b505050506040513d601f19601f8201168201806040525081019061228d9190612c66565b90506000601560019054906101000a90046001600160a01b03166001600160a01b031663105e43086040518163ffffffff1660e01b8152600401602060405180830381865afa1580156122e4573d6000803e3d6000fd5b505050506040513d601f19601f820116820180604052508101906123089190612c66565b600a5490915060009060ff16612329576003546001600160a01b031661232b565b815b60025460405163e6a4390560e01b81526001600160a01b039182166004820152818316602482015291925084169063e6a4390590604401602060405180830381865afa15801561237f573d6000803e3d6000fd5b505050506040513d601f19601f820116820180604052508101906123a39190612c66565b601380546001600160a01b0319166001600160a01b039290921691821790556124025760405162461bcd60e51b81526020600482015260116024820152701314081c185a5c881b9bdd08199bdd5b99607a1b6044820152606401610923565b6014849055601354612420906001600160a01b031661dead86611ebb565b6015805460ff191660011790556013546040516001600160a01b03909116907fe13d296d0b3f1b2107082ed86bbeb47413bc2e2b753bbf64e0804e457339e95c9061246e9087815260200190565b60405180910390a250505050565b6000806124898385612aed565b9050838110156120555760405162461bcd60e51b815260206004820152601b60248201527f536166654d6174683a206164646974696f6e206f766572666c6f7700000000006044820152606401610923565b604080516001600160a01b0385811660248301528481166044830152606480830185905283518084039091018152608490920183526020820180516001600160e01b03166323b872dd60e01b179052915160009283929088169161253f9190612be7565b6000604051808303816000865af19150503d806000811461257c576040519150601f19603f3d011682016040523d82523d6000602084013e612581565b606091505b50915091508180156125ab5750805115806125ab5750808060200190518101906125ab9190612c03565b6126035760405162461bcd60e51b8152602060048201526024808201527f5472616e7366657248656c7065723a205452414e534645525f46524f4d5f46416044820152631253115160e21b6064820152608401610923565b505050505050565b8061264c576040516001600160a01b0384169083156108fc029084906000818181858888f19350505050158015612646573d6000803e3d6000fd5b50612760565b604080516001600160a01b038581166024830152604480830186905283518084039091018152606490920183526020820180516001600160e01b031663a9059cbb60e01b17905291516000928392908816916126a89190612be7565b6000604051808303816000865af19150503d80600081146126e5576040519150601f19603f3d011682016040523d82523d6000602084013e6126ea565b606091505b50915091508180156127145750805115806127145750808060200190518101906127149190612c03565b6126035760405162461bcd60e51b815260206004820152601f60248201527f5472616e7366657248656c7065723a205452414e534645525f4641494c4544006044820152606401610923565b50505050565b6001600160a01b038116811461277b57600080fd5b50565b6000806040838503121561279157600080fd5b823561279c81612766565b946020939093013593505050565b60005b838110156127c55781810151838201526020016127ad565b838111156127605750506000910152565b600081518084526127ee8160208601602086016127aa565b601f01601f19169290920160200192915050565b821515815260406020820152600061281d60408301846127d6565b949350505050565b60006020828403121561283757600080fd5b813561205581612766565b634e487b7160e01b600052602160045260246000fd5b602081016006831061287a57634e487b7160e01b600052602160045260246000fd5b91905290565b6000806020838503121561289357600080fd5b823567ffffffffffffffff808211156128ab57600080fd5b818501915085601f8301126128bf57600080fd5b8135818111156128ce57600080fd5b8660208260051b85010111156128e357600080fd5b60209290920196919550909350505050565b60808152600061290860808301876127d6565b828103602084015261291a81876127d6565b91505083604083015260ff8316606083015295945050505050565b60006020828403121561294757600080fd5b5035919050565b6020808252601f908201527f5265656e7472616e637947756172643a207265656e7472616e742063616c6c00604082015260600190565b6020808252600990820152682737ba1037bbb732b960b91b604082015260600190565b634e487b7160e01b600052601160045260246000fd5b600060ff821660ff8416808210156129d8576129d86129a8565b90039392505050565b600181815b80851115612a1c578160001904821115612a0257612a026129a8565b80851615612a0f57918102915b93841c93908002906129e6565b509250929050565b600082612a3357506001612058565b81612a4057506000612058565b8160018114612a565760028114612a6057612a7c565b6001915050612058565b60ff841115612a7157612a716129a8565b50506001821b612058565b5060208310610133831016604e8410600b8410161715612a9f575081810a612058565b612aa983836129e1565b8060001904821115612abd57612abd6129a8565b029392505050565b600061205560ff841683612a24565b600060208284031215612ae657600080fd5b5051919050565b60008219821115612b0057612b006129a8565b500190565b600080600060608486031215612b1a57600080fd5b8351925060208401519150604084015190509250925092565b634e487b7160e01b600052603260045260246000fd5b6000600019821415612b5d57612b5d6129a8565b5060010190565b600181811c90821680612b7857607f821691505b60208210811415612b9957634e487b7160e01b600052602260045260246000fd5b50919050565b60208152600061205560208301846127d6565b6020808252818101527f43616e6e6f74206368616e67652061667465722066696e616c697a6174696f6e604082015260600190565b60008251612bf98184602087016127aa565b9190910192915050565b600060208284031215612c1557600080fd5b8151801515811461205557600080fd5b6000816000190483118215151615612c3f57612c3f6129a8565b500290565b600082612c6157634e487b7160e01b600052601260045260246000fd5b500490565b600060208284031215612c7857600080fd5b81516120558161276656fea264697066735822122034fbf18ae251518a583b5e529ec9b51927c5f7509733933a213446dd948c3bed64736f6c634300080c0033",
  "linkReferences": {},
  "deployedLinkReferences": {}
}