{
  "_format": "hh-sol-artifact-1",
  "contractName": "Presale",
  "sourceName": "contracts/presale/Presale.sol",
  "abi": [
    {
      "inputs": [
        {
          "internalType": "address",
          "name": "_owner",
          "type": "address"
        },
        {
          "internalType": "address",
          "name": "_saleToken",
          "type": "address"
        },
        {
          "internalType": "address",
          "name": "_baseToken",
          "type": "address"
        },
        {
          "internalType": "uint256",
          "name": "_tokenRate",
          "type": "uint256"
        },
        {
          "internalType": "uint256",
          "name": "_liquidityRate",
          "type": "uint256"
        },
        {
          "internalType": "uint256",
          "name": "_raiseMin",
          "type": "uint256"
        },
        {
          "internalType": "uint256",
          "name": "_raiseMax",
          "type": "uint256"
        },
        {
          "internalType": "uint256",
          "name": "_softCap",
          "type": "uint256"
        },
        {
          "internalType": "uint256",
          "name": "_hardCap",
          "type": "uint256"
        },
        {
          "internalType": "uint256",
          "name": "_liquidityPercent",
          "type": "uint256"
        },
        {
          "internalType": "uint256",
          "name": "_presaleStart",
          "type": "uint256"
        },
        {
          "internalType": "uint256",
          "name": "_presaleEnd",
          "type": "uint256"
        }
      ],
      "stateMutability": "nonpayable",
      "type": "constructor"
    },
    {
      "anonymous": false,
      "inputs": [
        {
          "indexed": true,
          "internalType": "address",
          "name": "lpToken",
          "type": "address"
        },
        {
          "indexed": false,
          "internalType": "uint256",
          "name": "amount",
          "type": "uint256"
        },
        {
          "indexed": false,
          "internalType": "uint256",
          "name": "unlockTime",
          "type": "uint256"
        }
      ],
      "name": "LPTokensLocked",
      "type": "event"
    },
    {
      "anonymous": false,
      "inputs": [
        {
          "indexed": true,
          "internalType": "address",
          "name": "lpToken",
          "type": "address"
        },
        {
          "indexed": false,
          "internalType": "uint256",
          "name": "amount",
          "type": "uint256"
        },
        {
          "indexed": false,
          "internalType": "address",
          "name": "recipient",
          "type": "address"
        }
      ],
      "name": "LPTokensWithdrawn",
      "type": "event"
    },
    {
      "anonymous": false,
      "inputs": [
        {
          "indexed": true,
          "internalType": "address",
          "name": "user",
          "type": "address"
        },
        {
          "indexed": false,
          "internalType": "uint256",
          "name": "baseAmount",
          "type": "uint256"
        },
        {
          "indexed": false,
          "internalType": "uint256",
          "name": "tokenAmount",
          "type": "uint256"
        }
      ],
      "name": "Participated",
      "type": "event"
    },
    {
      "anonymous": false,
      "inputs": [],
      "name": "PresaleCancelled",
      "type": "event"
    },
    {
      "anonymous": false,
      "inputs": [
        {
          "indexed": true,
          "internalType": "address",
          "name": "owner",
          "type": "address"
        },
        {
          "indexed": true,
          "internalType": "address",
          "name": "presale",
          "type": "address"
        }
      ],
      "name": "PresaleCreated",
      "type": "event"
    },
    {
      "anonymous": false,
      "inputs": [
        {
          "indexed": false,
          "internalType": "uint256",
          "name": "raisedAmount",
          "type": "uint256"
        },
        {
          "indexed": false,
          "internalType": "uint256",
          "name": "liquidityAmount",
          "type": "uint256"
        }
      ],
      "name": "PresaleFinalized",
      "type": "event"
    },
    {
      "anonymous": false,
      "inputs": [
        {
          "indexed": true,
          "internalType": "address",
          "name": "user",
          "type": "address"
        },
        {
          "indexed": false,
          "internalType": "uint256",
          "name": "amount",
          "type": "uint256"
        }
      ],
      "name": "RefundClaimed",
      "type": "event"
    },
    {
      "anonymous": false,
      "inputs": [
        {
          "indexed": true,
          "internalType": "address",
          "name": "owner",
          "type": "address"
        },
        {
          "indexed": false,
          "internalType": "uint256",
          "name": "amount",
          "type": "uint256"
        }
      ],
      "name": "RemainingFundsWithdrawn",
      "type": "event"
    },
    {
      "anonymous": false,
      "inputs": [
        {
          "indexed": true,
          "internalType": "address",
          "name": "user",
          "type": "address"
        },
        {
          "indexed": false,
          "internalType": "uint256",
          "name": "amount",
          "type": "uint256"
        }
      ],
      "name": "TokensClaimed",
      "type": "event"
    },
    {
      "inputs": [],
      "name": "DEAD_ADDRESS",
      "outputs": [
        {
          "internalType": "address",
          "name": "",
          "type": "address"
        }
      ],
      "stateMutability": "view",
      "type": "function"
    },
    {
      "inputs": [],
      "name": "FOREVER_LOCK",
      "outputs": [
        {
          "internalType": "uint256",
          "name": "",
          "type": "uint256"
        }
      ],
      "stateMutability": "view",
      "type": "function"
    },
    {
      "inputs": [],
      "name": "MIN_LP_LOCK_TIME",
      "outputs": [
        {
          "internalType": "uint256",
          "name": "",
          "type": "uint256"
        }
      ],
      "stateMutability": "view",
      "type": "function"
    },
    {
      "inputs": [
        {
          "internalType": "address[]",
          "name": "users",
          "type": "address[]"
        },
        {
          "internalType": "bool",
          "name": "isPermanent",
          "type": "bool"
        }
      ],
      "name": "addToWhitelist",
      "outputs": [],
      "stateMutability": "nonpayable",
      "type": "function"
    },
    {
      "inputs": [
        {
          "internalType": "address",
          "name": "",
          "type": "address"
        }
      ],
      "name": "buyers",
      "outputs": [
        {
          "internalType": "uint256",
          "name": "baseContribution",
          "type": "uint256"
        },
        {
          "internalType": "uint256",
          "name": "tokenAllocation",
          "type": "uint256"
        },
        {
          "internalType": "bool",
          "name": "claimed",
          "type": "bool"
        }
      ],
      "stateMutability": "view",
      "type": "function"
    },
    {
      "inputs": [
        {
          "internalType": "uint256",
          "name": "baseAmount",
          "type": "uint256"
        }
      ],
      "name": "calculateTokenAmount",
      "outputs": [
        {
          "internalType": "uint256",
          "name": "",
          "type": "uint256"
        }
      ],
      "stateMutability": "view",
      "type": "function"
    },
    {
      "inputs": [
        {
          "internalType": "address",
          "name": "user",
          "type": "address"
        },
        {
          "internalType": "uint256",
          "name": "amount",
          "type": "uint256"
        }
      ],
      "name": "canParticipate",
      "outputs": [
        {
          "internalType": "bool",
          "name": "",
          "type": "bool"
        },
        {
          "internalType": "string",
          "name": "",
          "type": "string"
        }
      ],
      "stateMutability": "view",
      "type": "function"
    },
    {
      "inputs": [],
      "name": "cancelPresale",
      "outputs": [],
      "stateMutability": "nonpayable",
      "type": "function"
    },
    {
      "inputs": [],
      "name": "cancelled",
      "outputs": [
        {
          "internalType": "bool",
          "name": "",
          "type": "bool"
        }
      ],
      "stateMutability": "view",
      "type": "function"
    },
    {
      "inputs": [],
      "name": "claimRefund",
      "outputs": [],
      "stateMutability": "nonpayable",
      "type": "function"
    },
    {
      "inputs": [],
      "name": "claimTokens",
      "outputs": [],
      "stateMutability": "nonpayable",
      "type": "function"
    },
    {
      "inputs": [],
      "name": "finalize",
      "outputs": [],
      "stateMutability": "nonpayable",
      "type": "function"
    },
    {
      "inputs": [],
      "name": "finalized",
      "outputs": [
        {
          "internalType": "bool",
          "name": "",
          "type": "bool"
        }
      ],
      "stateMutability": "view",
      "type": "function"
    },
    {
      "inputs": [],
      "name": "getProgress",
      "outputs": [
        {
          "internalType": "uint256",
          "name": "",
          "type": "uint256"
        }
      ],
      "stateMutability": "view",
      "type": "function"
    },
    {
      "inputs": [],
      "name": "getStatus",
      "outputs": [
        {
          "internalType": "enum Presale.PresaleStatus",
          "name": "",
          "type": "uint8"
        }
      ],
      "stateMutability": "view",
      "type": "function"
    },
    {
      "inputs": [
        {
          "internalType": "address",
          "name": "user",
          "type": "address"
        }
      ],
      "name": "isWhitelisted",
      "outputs": [
        {
          "internalType": "bool",
          "name": "",
          "type": "bool"
        }
      ],
      "stateMutability": "view",
      "type": "function"
    },
    {
      "inputs": [],
      "name": "lockDelay",
      "outputs": [
        {
          "internalType": "uint256",
          "name": "",
          "type": "uint256"
        }
      ],
      "stateMutability": "view",
      "type": "function"
    },
    {
      "inputs": [],
      "name": "lpLockDuration",
      "outputs": [
        {
          "internalType": "uint256",
          "name": "",
          "type": "uint256"
        }
      ],
      "stateMutability": "view",
      "type": "function"
    },
    {
      "inputs": [],
      "name": "lpRecipient",
      "outputs": [
        {
          "internalType": "address",
          "name": "",
          "type": "address"
        }
      ],
      "stateMutability": "view",
      "type": "function"
    },
    {
      "inputs": [],
      "name": "lpTokenAddress",
      "outputs": [
        {
          "internalType": "address",
          "name": "",
          "type": "address"
        }
      ],
      "stateMutability": "view",
      "type": "function"
    },
    {
      "inputs": [],
      "name": "lpTokenAmount",
      "outputs": [
        {
          "internalType": "uint256",
          "name": "",
          "type": "uint256"
        }
      ],
      "stateMutability": "view",
      "type": "function"
    },
    {
      "inputs": [],
      "name": "lpTokensWithdrawn",
      "outputs": [
        {
          "internalType": "bool",
          "name": "",
          "type": "bool"
        }
      ],
      "stateMutability": "view",
      "type": "function"
    },
    {
      "inputs": [],
      "name": "lpUnlockTime",
      "outputs": [
        {
          "internalType": "uint256",
          "name": "",
          "type": "uint256"
        }
      ],
      "stateMutability": "view",
      "type": "function"
    },
    {
      "inputs": [],
      "name": "owner",
      "outputs": [
        {
          "internalType": "address",
          "name": "",
          "type": "address"
        }
      ],
      "stateMutability": "view",
      "type": "function"
    },
    {
      "inputs": [],
      "name": "participantCount",
      "outputs": [
        {
          "internalType": "uint256",
          "name": "",
          "type": "uint256"
        }
      ],
      "stateMutability": "view",
      "type": "function"
    },
    {
      "inputs": [
        {
          "internalType": "uint256",
          "name": "amount",
          "type": "uint256"
        }
      ],
      "name": "participate",
      "outputs": [],
      "stateMutability": "payable",
      "type": "function"
    },
    {
      "inputs": [
        {
          "internalType": "address",
          "name": "",
          "type": "address"
        }
      ],
      "name": "permanentWhitelist",
      "outputs": [
        {
          "internalType": "bool",
          "name": "",
          "type": "bool"
        }
      ],
      "stateMutability": "view",
      "type": "function"
    },
    {
      "inputs": [],
      "name": "presaleInfo",
      "outputs": [
        {
          "internalType": "address",
          "name": "saleToken",
          "type": "address"
        },
        {
          "internalType": "address",
          "name": "baseToken",
          "type": "address"
        },
        {
          "internalType": "uint256",
          "name": "tokenRate",
          "type": "uint256"
        },
        {
          "internalType": "uint256",
          "name": "liquidityRate",
          "type": "uint256"
        },
        {
          "internalType": "uint256",
          "name": "raiseMin",
          "type": "uint256"
        },
        {
          "internalType": "uint256",
          "name": "raiseMax",
          "type": "uint256"
        },
        {
          "internalType": "uint256",
          "name": "softCap",
          "type": "uint256"
        },
        {
          "internalType": "uint256",
          "name": "hardCap",
          "type": "uint256"
        },
        {
          "internalType": "uint256",
          "name": "liquidityPercent",
          "type": "uint256"
        },
        {
          "internalType": "uint256",
          "name": "presaleStart",
          "type": "uint256"
        },
        {
          "internalType": "uint256",
          "name": "presaleEnd",
          "type": "uint256"
        },
        {
          "internalType": "enum Presale.PresaleType",
          "name": "presaleType",
          "type": "uint8"
        },
        {
          "internalType": "uint256",
          "name": "publicTime",
          "type": "uint256"
        }
      ],
      "stateMutability": "view",
      "type": "function"
    },
    {
      "inputs": [],
      "name": "raisedAmount",
      "outputs": [
        {
          "internalType": "uint256",
          "name": "",
          "type": "uint256"
        }
      ],
      "stateMutability": "view",
      "type": "function"
    },
    {
      "inputs": [
        {
          "internalType": "address[]",
          "name": "users",
          "type": "address[]"
        }
      ],
      "name": "removeFromWhitelist",
      "outputs": [],
      "stateMutability": "nonpayable",
      "type": "function"
    },
    {
      "inputs": [],
      "name": "router",
      "outputs": [
        {
          "internalType": "contract IKalySwapRouter",
          "name": "",
          "type": "address"
        }
      ],
      "stateMutability": "view",
      "type": "function"
    },
    {
      "inputs": [
        {
          "internalType": "uint256",
          "name": "_lockDuration",
          "type": "uint256"
        },
        {
          "internalType": "address",
          "name": "_recipient",
          "type": "address"
        }
      ],
      "name": "setLPLockSettings",
      "outputs": [],
      "stateMutability": "nonpayable",
      "type": "function"
    },
    {
      "inputs": [
        {
          "internalType": "uint256",
          "name": "_delay",
          "type": "uint256"
        }
      ],
      "name": "setLockDelay",
      "outputs": [],
      "stateMutability": "nonpayable",
      "type": "function"
    },
    {
      "inputs": [
        {
          "internalType": "enum Presale.PresaleType",
          "name": "_type",
          "type": "uint8"
        },
        {
          "internalType": "uint256",
          "name": "_publicTime",
          "type": "uint256"
        }
      ],
      "name": "setPresaleType",
      "outputs": [],
      "stateMutability": "nonpayable",
      "type": "function"
    },
    {
      "inputs": [
        {
          "internalType": "address",
          "name": "_router",
          "type": "address"
        }
      ],
      "name": "setRouter",
      "outputs": [],
      "stateMutability": "nonpayable",
      "type": "function"
    },
    {
      "inputs": [],
      "name": "soldTokens",
      "outputs": [
        {
          "internalType": "uint256",
          "name": "",
          "type": "uint256"
        }
      ],
      "stateMutability": "view",
      "type": "function"
    },
    {
      "inputs": [],
      "name": "tokenInfo",
      "outputs": [
        {
          "internalType": "string",
          "name": "name",
          "type": "string"
        },
        {
          "internalType": "string",
          "name": "symbol",
          "type": "string"
        },
        {
          "internalType": "uint256",
          "name": "totalSupply",
          "type": "uint256"
        },
        {
          "internalType": "uint8",
          "name": "decimals",
          "type": "uint8"
        }
      ],
      "stateMutability": "view",
      "type": "function"
    },
    {
      "inputs": [],
      "name": "tokenUnlockTime",
      "outputs": [
        {
          "internalType": "uint256",
          "name": "",
          "type": "uint256"
        }
      ],
      "stateMutability": "view",
      "type": "function"
    },
    {
      "inputs": [
        {
          "internalType": "address",
          "name": "newOwner",
          "type": "address"
        }
      ],
      "name": "transferOwnership",
      "outputs": [],
      "stateMutability": "nonpayable",
      "type": "function"
    },
    {
      "inputs": [
        {
          "internalType": "address",
          "name": "",
          "type": "address"
        }
      ],
      "name": "whitelist",
      "outputs": [
        {
          "internalType": "bool",
          "name": "",
          "type": "bool"
        }
      ],
      "stateMutability": "view",
      "type": "function"
    },
    {
      "inputs": [],
      "name": "withdrawLPTokens",
      "outputs": [],
      "stateMutability": "nonpayable",
      "type": "function"
    },
    {
      "inputs": [],
      "name": "withdrawRemainingFunds",
      "outputs": [],
      "stateMutability": "nonpayable",
      "type": "function"
    }
  ],
  "bytecode": "0x60806040523480156200001157600080fd5b50604051620039f6380380620039f68339810160408190526200003491620007c6565b60016000556001600160a01b038c16620000855760405162461bcd60e51b815260206004820152600d60248201526c24b73b30b634b21037bbb732b960991b60448201526064015b60405180910390fd5b6001600160a01b038b16620000d25760405162461bcd60e51b815260206004820152601260248201527124b73b30b634b21039b0b632903a37b5b2b760711b60448201526064016200007c565b60008911620001195760405162461bcd60e51b8152602060048201526012602482015271496e76616c696420746f6b656e207261746560701b60448201526064016200007c565b600088116200016b5760405162461bcd60e51b815260206004820152601660248201527f496e76616c6964206c697175696469747920726174650000000000000000000060448201526064016200007c565b6000871180156200017b57508686115b620001c95760405162461bcd60e51b815260206004820152601460248201527f496e76616c6964207261697365206c696d69747300000000000000000000000060448201526064016200007c565b600085118015620001d957508484115b620002165760405162461bcd60e51b815260206004820152600c60248201526b496e76616c6964206361707360a01b60448201526064016200007c565b60008311801562000228575060648311155b620002765760405162461bcd60e51b815260206004820152601960248201527f496e76616c6964206c69717569646974792070657263656e740000000000000060448201526064016200007c565b428211620002bc5760405162461bcd60e51b8152602060048201526012602482015271496e76616c69642073746172742074696d6560701b60448201526064016200007c565b818111620003005760405162461bcd60e51b815260206004820152601060248201526f496e76616c696420656e642074696d6560801b60448201526064016200007c565b8b600160006101000a8154816001600160a01b0302191690836001600160a01b03160217905550604051806101a001604052808c6001600160a01b031681526020018b6001600160a01b031681526020018a8152602001898152602001888152602001878152602001868152602001858152602001848152602001838152602001828152602001600060018111156200039d576200039d6200086a565b815260006020918201528151600280546001600160a01b039283166001600160a01b0319918216178255928401516003805491909316931692909217905560408201516004556060820151600555608082015160065560a082015160075560c082015160085560e0820151600955610100820151600a55610120820151600b55610140820151600c55610160820151600d805460ff1916600183818111156200044a576200044a6200086a565b021790555061018082015181600c015590505060008b90506040518060800160405280826001600160a01b03166306fdde036040518163ffffffff1660e01b8152600401600060405180830381865afa158015620004ac573d6000803e3d6000fd5b505050506040513d6000823e601f3d908101601f19168201604052620004d6919081019062000896565b8152602001826001600160a01b03166395d89b416040518163ffffffff1660e01b8152600401600060405180830381865afa1580156200051a573d6000803e3d6000fd5b505050506040513d6000823e601f3d908101601f1916820160405262000544919081019062000896565b8152602001826001600160a01b03166318160ddd6040518163ffffffff1660e01b8152600401602060405180830381865afa15801562000588573d6000803e3d6000fd5b505050506040513d601f19601f82011682018060405250810190620005ae919062000972565b8152602001826001600160a01b031663313ce5676040518163ffffffff1660e01b8152600401602060405180830381865afa158015620005f2573d6000803e3d6000fd5b505050506040513d601f19601f820116820180604052508101906200061891906200098c565b60ff16905280518051600f91620006359183916020019062000703565b50602082810151805162000650926001850192019062000703565b506040820151816002015560608201518160030160006101000a81548160ff021916908360ff16021790555090505062278d00601b819055508c601c60006101000a8154816001600160a01b0302191690836001600160a01b03160217905550306001600160a01b03168d6001600160a01b03167fcfea6066a7ff70439f7cfe020aea9709cf4b7cb462225660895dfcc5c38716ae60405160405180910390a350505050505050505050505050620009f5565b8280546200071190620009b8565b90600052602060002090601f01602090048101928262000735576000855562000780565b82601f106200075057805160ff191683800117855562000780565b8280016001018555821562000780579182015b828111156200078057825182559160200191906001019062000763565b506200078e92915062000792565b5090565b5b808211156200078e576000815560010162000793565b80516001600160a01b0381168114620007c157600080fd5b919050565b6000806000806000806000806000806000806101808d8f031215620007ea57600080fd5b620007f58d620007a9565b9b506200080560208e01620007a9565b9a506200081560408e01620007a9565b995060608d0151985060808d0151975060a08d0151965060c08d0151955060e08d015194506101008d015193506101208d015192506101408d015191506101608d015190509295989b509295989b509295989b565b634e487b7160e01b600052602160045260246000fd5b634e487b7160e01b600052604160045260246000fd5b60006020808385031215620008aa57600080fd5b82516001600160401b0380821115620008c257600080fd5b818501915085601f830112620008d757600080fd5b815181811115620008ec57620008ec62000880565b604051601f8201601f19908116603f0116810190838211818310171562000917576200091762000880565b8160405282815288868487010111156200093057600080fd5b600093505b8284101562000954578484018601518185018701529285019262000935565b82841115620009665760008684830101525b98975050505050505050565b6000602082840312156200098557600080fd5b5051919050565b6000602082840312156200099f57600080fd5b815160ff81168114620009b157600080fd5b9392505050565b600181811c90821680620009cd57607f821691505b60208210811415620009ef57634e487b7160e01b600052602260045260246000fd5b50919050565b612ff18062000a056000396000f3fe6080604052600436106102515760003560e01c80638da5cb5b11610139578063c59ee1dc116100b6578063dedae2471161007a578063dedae24714610729578063edf8bc131461073f578063ef86ce8e14610754578063f2fde38b14610769578063f5ae497a14610789578063f887ea40146107a957600080fd5b8063c59ee1dc146106a6578063c943dc40146106bc578063ca1a961d146106d2578063ce0cbd28146106f2578063de35eb241461071357600080fd5b8063a24bcf46116100fd578063a24bcf461461061c578063b3f05b971461063c578063b5545a3c1461065b578063c0d7865514610670578063c3ec8ad61461069057600080fd5b80638da5cb5b14610542578063939c44561461056257806397a993aa146105775780639a82a09a146105d35780639b19251a146105ed57600080fd5b80634e69d560116101d257806362c5dc7d1161019657806362c5dc7d14610484578063648e85c6146104a45780636addb663146104ba5780636d75c5d2146104df5780636fa14bc3146104ff578063845c93061461052f57600080fd5b80634e69d560146103ff5780634e6fd6c4146104215780634e7e67a414610437578063548db1741461044e5780635ed9ebfc1461046e57600080fd5b8063408ae58511610219578063408ae58514610366578063452e68dd14610388578063467e53b1146103c057806348c54b9d146103d55780634bb278f3146103ea57600080fd5b806305a30fee146102565780632edf08691461028d578063362f04c0146102fc57806336acbe6b146103205780633af32abf14610336575b600080fd5b34801561026257600080fd5b50610276610271366004612978565b6107c9565b6040516102849291906129fc565b60405180910390f35b34801561029957600080fd5b50600254600354600454600554600654600754600854600954600a54600b54600c54600d54600e546102e39c6001600160a01b039081169c169a99989796959493929160ff16908d565b6040516102849d9c9b9a99989796959493929190612a35565b34801561030857600080fd5b5061031260155481565b604051908152602001610284565b34801561032c57600080fd5b5061031260195481565b34801561034257600080fd5b50610356610351366004612abd565b610979565b6040519015158152602001610284565b34801561037257600080fd5b50610386610381366004612b2d565b6109d5565b005b34801561039457600080fd5b50601c546103a8906001600160a01b031681565b6040516001600160a01b039091168152602001610284565b3480156103cc57600080fd5b50610386610adc565b3480156103e157600080fd5b50610386610b96565b3480156103f657600080fd5b50610386610d66565b34801561040b57600080fd5b506104146112cd565b6040516102849190612b84565b34801561042d57600080fd5b506103a861dead81565b34801561044357600080fd5b5061031262278d0081565b34801561045a57600080fd5b50610386610469366004612b9e565b61133e565b34801561047a57600080fd5b5061031260145481565b34801561049057600080fd5b5061038661049f366004612be0565b61142c565b3480156104b057600080fd5b50610312601a5481565b3480156104c657600080fd5b506104cf611546565b6040516102849493929190612c10565b3480156104eb57600080fd5b506103866104fa366004612c50565b611676565b34801561050b57600080fd5b5061035661051a366004612abd565b60216020526000908152604090205460ff1681565b61038661053d366004612c72565b611731565b34801561054e57600080fd5b506001546103a8906001600160a01b031681565b34801561056e57600080fd5b50610312611920565b34801561058357600080fd5b506105b6610592366004612abd565b601f6020526000908152604090208054600182015460029092015490919060ff1683565b604080519384526020840192909252151590820152606001610284565b3480156105df57600080fd5b506016546103569060ff1681565b3480156105f957600080fd5b50610356610608366004612abd565b602080526000908152604090205460ff1681565b34801561062857600080fd5b50610312610637366004612c72565b61194b565b34801561064857600080fd5b5060165461035690610100900460ff1681565b34801561066757600080fd5b50610386611984565b34801561067c57600080fd5b5061038661068b366004612abd565b611b3b565b34801561069c57600080fd5b5061031260001981565b3480156106b257600080fd5b5061031260135481565b3480156106c857600080fd5b50610312601e5481565b3480156106de57600080fd5b506103866106ed366004612c72565b611bf6565b3480156106fe57600080fd5b50601c5461035690600160a01b900460ff1681565b34801561071f57600080fd5b50610312601b5481565b34801561073557600080fd5b5061031260175481565b34801561074b57600080fd5b50610386611c4d565b34801561076057600080fd5b50610386611e91565b34801561077557600080fd5b50610386610784366004612abd565b612018565b34801561079557600080fd5b506018546103a8906001600160a01b031681565b3480156107b557600080fd5b50601d546103a8906001600160a01b031681565b6000606060016107d76112cd565b60058111156107e8576107e8612a1f565b1461082057505060408051808201909152601281527150726573616c65206e6f742061637469766560701b6020820152600090610972565b61082984610979565b61085d57505060408051808201909152600f81526e139bdd081dda1a5d195b1a5cdd1959608a1b6020820152600090610972565b6006548310156108a557505060408051808201909152601a81527f42656c6f77206d696e696d756d20636f6e747269627574696f6e0000000000006020820152600090610972565b6001600160a01b0384166000908152601f60205260408120546108c890856120ae565b60075490915081111561091457505060408051808201909152601c81527f45786365656473206d6178696d756d20636f6e747269627574696f6e00000000602082015260009150610972565b60095460135461092490866120ae565b111561095c57505060408051808201909152601081526f0457863656564732068617264206361760841b602082015260009150610972565b5050604080516020810190915260008152600191505b9250929050565b600080600d5460ff16600181111561099357610993612a1f565b14156109b757600e5415806109aa5750600e544210155b156109b757506001919050565b506001600160a01b0316600090815260208052604090205460ff1690565b6001546001600160a01b03163314610a085760405162461bcd60e51b81526004016109ff90612c8b565b60405180910390fd5b60005b82811015610ad657600160206000868685818110610a2b57610a2b612cae565b9050602002016020810190610a409190612abd565b6001600160a01b031681526020810191909152604001600020805460ff19169115159190911790558115610ac457600160216000868685818110610a8657610a86612cae565b9050602002016020810190610a9b9190612abd565b6001600160a01b031681526020810191909152604001600020805460ff19169115159190911790555b80610ace81612cda565b915050610a0b565b50505050565b6001546001600160a01b03163314610b065760405162461bcd60e51b81526004016109ff90612c8b565b601654610100900460ff1615610b5e5760405162461bcd60e51b815260206004820181905260248201527f43616e6e6f742063616e63656c2061667465722066696e616c697a6174696f6e60448201526064016109ff565b6016805460ff191660011790556040517fd2cd724ddf2a5df0530f823642f354d39f58719906bbecf0820f498c9c5a359f90600090a1565b60026000541415610bb95760405162461bcd60e51b81526004016109ff90612cf5565b60026000556005610bc86112cd565b6005811115610bd957610bd9612a1f565b14610c165760405162461bcd60e51b815260206004820152600d60248201526c139bdd08199a5b985b1a5e9959609a1b60448201526064016109ff565b601754421015610c5e5760405162461bcd60e51b8152602060048201526013602482015272151bdad95b9cc81cdd1a5b1b081b1bd8dad959606a1b60448201526064016109ff565b336000908152601f602052604090206001810154610cb35760405162461bcd60e51b81526020600482015260126024820152714e6f20746f6b656e7320746f20636c61696d60701b60448201526064016109ff565b600281015460ff1615610cfa5760405162461bcd60e51b815260206004820152600f60248201526e105b1c9958591e4818db185a5b5959608a1b60448201526064016109ff565b6001808201546002808401805460ff19169093179092559054610d27906001600160a01b03163383612114565b60405181815233907f896e034966eaaf1adc54acc0f257056febbd300c9e47182cf761982cf1f5e430906020015b60405180910390a250506001600055565b60026000541415610d895760405162461bcd60e51b81526004016109ff90612cf5565b60026000556001546001600160a01b03163314610db85760405162461bcd60e51b81526004016109ff90612c8b565b601654610100900460ff1615610e045760405162461bcd60e51b8152602060048201526011602482015270105b1c9958591e48199a5b985b1a5e9959607a1b60448201526064016109ff565b6002610e0e6112cd565b6005811115610e1f57610e1f612a1f565b14610e655760405162461bcd60e51b8152602060048201526016602482015275141c995cd85b19481b9bdd081cdd58d8d95cdcd99d5b60521b60448201526064016109ff565b601d546001600160a01b0316610eae5760405162461bcd60e51b815260206004820152600e60248201526d149bdd5d195c881b9bdd081cd95d60921b60448201526064016109ff565b600354600a546013546001600160a01b039092161591600091610ede91606491610ed8919061222f565b906122ae565b60128054919250600091610f1291610ef99160ff1690612d2c565b610f0490600a612e33565b600554610ed890859061222f565b6002546040516370a0823160e01b815230600482015291925082916001600160a01b03909116906370a0823190602401602060405180830381865afa158015610f5f573d6000803e3d6000fd5b505050506040513d601f19601f82011682018060405250810190610f839190612e42565b1015610fdb5760405162461bcd60e51b815260206004820152602160248201527f496e73756666696369656e7420746f6b656e7320666f72206c697175696469746044820152607960f81b60648201526084016109ff565b600254601d54610ff8916001600160a01b03908116911683612309565b600083156110c857601d546002546001600160a01b039182169163801ef55d91869116856000803061102c42610e10612e5b565b60405160e089901b6001600160e01b03191681526001600160a01b039687166004820152602481019590955260448501939093526064840191909152909216608482015260a481019190915260c40160606040518083038185885af1158015611099573d6000803e3d6000fd5b50505050506040513d601f19601f820116820180604052508101906110be9190612e73565b92506111bb915050565b600354601d546110e5916001600160a01b03908116911685612309565b601d546003546002546001600160a01b039283169263e8e33700928116911686866000803061111642610e10612e5b565b60405160e08a901b6001600160e01b03191681526001600160a01b039889166004820152968816602488015260448701959095526064860193909352608485019190915260a484015290921660c482015260e4810191909152610104016060604051808303816000875af1158015611192573d6000803e3d6000fd5b505050506040513d601f19601f820116820180604052508101906111b69190612e73565b925050505b6111c48161241d565b60008461123c576003546040516370a0823160e01b81523060048201526001600160a01b03909116906370a0823190602401602060405180830381865afa158015611213573d6000803e3d6000fd5b505050506040513d601f19601f820116820180604052508101906112379190612e42565b61123e565b475b9050801561126557600354600154611265916001600160a01b0390811691168388156126db565b6016805461ff001916610100179055601e546112829042906120ae565b60175560135460408051918252602082018690527fedfde254cb8ed39d650c9a34251c59d6817fae4cc876cc2ce76669976cf102ee910160405180910390a150506001600055505050565b60165460009060ff16156112e15750600490565b601654610100900460ff16156112f75750600590565b600b544210156113075750600090565b600c54421161132757600954601354106113215750600290565b50600190565b600854601354106113385750600290565b50600390565b6001546001600160a01b031633146113685760405162461bcd60e51b81526004016109ff90612c8b565b60005b81811015611427576021600084848481811061138957611389612cae565b905060200201602081019061139e9190612abd565b6001600160a01b0316815260208101919091526040016000205460ff16611415576000602060008585858181106113d7576113d7612cae565b90506020020160208101906113ec9190612abd565b6001600160a01b031681526020810191909152604001600020805460ff19169115159190911790555b8061141f81612cda565b91505061136b565b505050565b6001546001600160a01b031633146114565760405162461bcd60e51b81526004016109ff90612c8b565b601654610100900460ff161561147e5760405162461bcd60e51b81526004016109ff90612ea1565b62278d0082101580611491575060001982145b6114d55760405162461bcd60e51b815260206004820152601560248201527424b73b30b634b2103637b1b590323ab930ba34b7b760591b60448201526064016109ff565b6001600160a01b03811661151f5760405162461bcd60e51b8152602060048201526011602482015270125b9d985b1a59081c9958da5c1a595b9d607a1b60448201526064016109ff565b601b91909155601c80546001600160a01b0319166001600160a01b03909216919091179055565b600f8054819061155590612ed6565b80601f016020809104026020016040519081016040528092919081815260200182805461158190612ed6565b80156115ce5780601f106115a3576101008083540402835291602001916115ce565b820191906000526020600020905b8154815290600101906020018083116115b157829003601f168201915b5050505050908060010180546115e390612ed6565b80601f016020809104026020016040519081016040528092919081815260200182805461160f90612ed6565b801561165c5780601f106116315761010080835404028352916020019161165c565b820191906000526020600020905b81548152906001019060200180831161163f57829003601f168201915b50505050600283015460039093015491929160ff16905084565b6001546001600160a01b031633146116a05760405162461bcd60e51b81526004016109ff90612c8b565b60006116aa6112cd565b60058111156116bb576116bb612a1f565b146117085760405162461bcd60e51b815260206004820152601760248201527f50726573616c6520616c7265616479207374617274656400000000000000000060448201526064016109ff565b600d805483919060ff19166001838181111561172657611726612a1f565b0217905550600e5550565b600260005414156117545760405162461bcd60e51b81526004016109ff90612cf5565b600260005560016117636112cd565b600581111561177457611774612a1f565b146117b65760405162461bcd60e51b815260206004820152601260248201527150726573616c65206e6f742061637469766560701b60448201526064016109ff565b6003546001600160a01b0316156000816117d057826117d2565b345b90506000806117e133846107c9565b915091508181906118055760405162461bcd60e51b81526004016109ff9190612f11565b5060006118118461194b565b9050600081116118515760405162461bcd60e51b815260206004820152600b60248201526a5a65726f20746f6b656e7360a81b60448201526064016109ff565b336000908152601f602052604090208054611878576015546118749060016120ae565b6015555b805461188490866120ae565b8155600181015461189590836120ae565b60018201556013546118a790866120ae565b6013556014546118b790836120ae565b601455856118d7576003546118d7906001600160a01b0316333088612838565b604080518681526020810184905233917f64ceaa25376a606505a20223863437c73f24c3d44eca9912c49197b4aea536a4910160405180910390a2505060016000555050505050565b6009546000906119305750600090565b6009546013546119469190610ed890606461222f565b905090565b6012805460009161197e916119659160ff90911690612d2c565b61197090600a612e33565b600454610ed890859061222f565b92915050565b600260005414156119a75760405162461bcd60e51b81526004016109ff90612cf5565b600260009081556119b66112cd565b905060038160058111156119cc576119cc612a1f565b14806119e9575060048160058111156119e7576119e7612a1f565b145b611a2a5760405162461bcd60e51b8152602060048201526012602482015271141c995cd85b19481b9bdd0819985a5b195960721b60448201526064016109ff565b336000908152601f602052604090208054611a875760405162461bcd60e51b815260206004820152601960248201527f4e6f20636f6e747269627574696f6e20746f20726566756e640000000000000060448201526064016109ff565b600281015460ff1615611ace5760405162461bcd60e51b815260206004820152600f60248201526e105b1c9958591e4818db185a5b5959608a1b60448201526064016109ff565b805460028201805460ff191660011790556003546001600160a01b0316801590611afb90338484156126db565b60405182815233907f358fe4192934d3bf28ae181feda1f4bd08ca67f5e2fad55582cce5eb67304ae99060200160405180910390a2505060016000555050565b6001546001600160a01b03163314611b655760405162461bcd60e51b81526004016109ff90612c8b565b6001600160a01b038116611bac5760405162461bcd60e51b815260206004820152600e60248201526d24b73b30b634b2103937baba32b960911b60448201526064016109ff565b601654610100900460ff1615611bd45760405162461bcd60e51b81526004016109ff90612ea1565b601d80546001600160a01b0319166001600160a01b0392909216919091179055565b6001546001600160a01b03163314611c205760405162461bcd60e51b81526004016109ff90612c8b565b601654610100900460ff1615611c485760405162461bcd60e51b81526004016109ff90612ea1565b601e55565b60026000541415611c705760405162461bcd60e51b81526004016109ff90612cf5565b6002600055601954611cc45760405162461bcd60e51b815260206004820152601860248201527f4e6f204c5020746f6b656e7320746f207769746864726177000000000000000060448201526064016109ff565b601c54600160a01b900460ff1615611d1e5760405162461bcd60e51b815260206004820152601b60248201527f4c5020746f6b656e7320616c72656164792077697468647261776e000000000060448201526064016109ff565b601c546001600160a01b03163314611d785760405162461bcd60e51b815260206004820152601e60248201527f4f6e6c79204c5020726563697069656e742063616e207769746864726177000060448201526064016109ff565b600019601a541415611dcc5760405162461bcd60e51b815260206004820152601860248201527f4c5020746f6b656e73206c6f636b656420666f7265766572000000000000000060448201526064016109ff565b601a54421015611e175760405162461bcd60e51b81526020600482015260166024820152751314081d1bdad95b9cc81cdd1a5b1b081b1bd8dad95960521b60448201526064016109ff565b601954601854601c805460ff60a01b198116600160a01b179091556001600160a01b0391821691611e4b9183911684612114565b601c54604080518481526001600160a01b039283166020820152918316917f3159b2d63f71ecf320ec9fe43bb62dab2f4e03b671a3ef897ffa091ab59b919c9101610d55565b60026000541415611eb45760405162461bcd60e51b81526004016109ff90612cf5565b60026000556001546001600160a01b03163314611ee35760405162461bcd60e51b81526004016109ff90612c8b565b6005611eed6112cd565b6005811115611efe57611efe612a1f565b14611f3b5760405162461bcd60e51b815260206004820152600d60248201526c139bdd08199a5b985b1a5e9959609a1b60448201526064016109ff565b6002546040516370a0823160e01b81523060048201526000916001600160a01b0316906370a0823190602401602060405180830381865afa158015611f84573d6000803e3d6000fd5b505050506040513d601f19601f82011682018060405250810190611fa89190612e42565b9050801561201057600254600154611fcd916001600160a01b03908116911683612114565b6001546040518281526001600160a01b03909116907f1e563d9e18af5db6fd44fc692df8325fdf25841bc9ba0ec5ea17f128b12766e39060200160405180910390a25b506001600055565b6001546001600160a01b031633146120425760405162461bcd60e51b81526004016109ff90612c8b565b6001600160a01b03811661208c5760405162461bcd60e51b815260206004820152601160248201527024b73b30b634b2103732bb9037bbb732b960791b60448201526064016109ff565b600180546001600160a01b0319166001600160a01b0392909216919091179055565b6000806120bb8385612e5b565b90508381101561210d5760405162461bcd60e51b815260206004820152601b60248201527f536166654d6174683a206164646974696f6e206f766572666c6f77000000000060448201526064016109ff565b9392505050565b604080516001600160a01b038481166024830152604480830185905283518084039091018152606490920183526020820180516001600160e01b031663a9059cbb60e01b17905291516000928392908716916121709190612f24565b6000604051808303816000865af19150503d80600081146121ad576040519150601f19603f3d011682016040523d82523d6000602084013e6121b2565b606091505b50915091508180156121dc5750805115806121dc5750808060200190518101906121dc9190612f40565b6122285760405162461bcd60e51b815260206004820152601f60248201527f5472616e7366657248656c7065723a205452414e534645525f4641494c45440060448201526064016109ff565b5050505050565b60008261223e5750600061197e565b600061224a8385612f5d565b9050826122578583612f7c565b1461210d5760405162461bcd60e51b815260206004820152602160248201527f536166654d6174683a206d756c7469706c69636174696f6e206f766572666c6f6044820152607760f81b60648201526084016109ff565b60008082116122ff5760405162461bcd60e51b815260206004820152601a60248201527f536166654d6174683a206469766973696f6e206279207a65726f00000000000060448201526064016109ff565b61210d8284612f7c565b604080516001600160a01b038481166024830152604480830185905283518084039091018152606490920183526020820180516001600160e01b031663095ea7b360e01b17905291516000928392908716916123659190612f24565b6000604051808303816000865af19150503d80600081146123a2576040519150601f19603f3d011682016040523d82523d6000602084013e6123a7565b606091505b50915091508180156123d15750805115806123d15750808060200190518101906123d19190612f40565b6122285760405162461bcd60e51b815260206004820152601e60248201527f5472616e7366657248656c7065723a20415050524f56455f4641494c4544000060448201526064016109ff565b600081116124645760405162461bcd60e51b81526020600482015260146024820152734e6f204c5020746f6b656e7320746f206c6f636b60601b60448201526064016109ff565b601d546040805163c45a015560e01b815290516000926001600160a01b03169163c45a01559160048083019260209291908290030181865afa1580156124ae573d6000803e3d6000fd5b505050506040513d601f19601f820116820180604052508101906124d29190612f9e565b90506000601d60009054906101000a90046001600160a01b03166001600160a01b031663105e43086040518163ffffffff1660e01b8152600401602060405180830381865afa158015612529573d6000803e3d6000fd5b505050506040513d601f19601f8201168201806040525081019061254d9190612f9e565b6003549091506000906001600160a01b031615612575576003546001600160a01b0316612577565b815b60025460405163e6a4390560e01b81526001600160a01b039182166004820152818316602482015291925084169063e6a4390590604401602060405180830381865afa1580156125cb573d6000803e3d6000fd5b505050506040513d601f19601f820116820180604052508101906125ef9190612f9e565b601880546001600160a01b0319166001600160a01b0392909216918217905561264e5760405162461bcd60e51b81526020600482015260116024820152701314081c185a5c881b9bdd08199bdd5b99607a1b60448201526064016109ff565b6019849055601b54600019141561266a57600019601a5561267c565b601b546126789042906120ae565b601a555b601c805460ff60a01b19169055601854601a546040805187815260208101929092526001600160a01b03909216917f1b873277ca6b7945d3196148f35091f88f8113745d15a98c226bce925c79819d910160405180910390a250505050565b8061271c576040516001600160a01b0384169083156108fc029084906000818181858888f19350505050158015612716573d6000803e3d6000fd5b50610ad6565b604080516001600160a01b038581166024830152604480830186905283518084039091018152606490920183526020820180516001600160e01b031663a9059cbb60e01b17905291516000928392908816916127789190612f24565b6000604051808303816000865af19150503d80600081146127b5576040519150601f19603f3d011682016040523d82523d6000602084013e6127ba565b606091505b50915091508180156127e45750805115806127e45750808060200190518101906127e49190612f40565b6128305760405162461bcd60e51b815260206004820152601f60248201527f5472616e7366657248656c7065723a205452414e534645525f4641494c45440060448201526064016109ff565b505050505050565b604080516001600160a01b0385811660248301528481166044830152606480830185905283518084039091018152608490920183526020820180516001600160e01b03166323b872dd60e01b179052915160009283929088169161289c9190612f24565b6000604051808303816000865af19150503d80600081146128d9576040519150601f19603f3d011682016040523d82523d6000602084013e6128de565b606091505b50915091508180156129085750805115806129085750808060200190518101906129089190612f40565b6128305760405162461bcd60e51b8152602060048201526024808201527f5472616e7366657248656c7065723a205452414e534645525f46524f4d5f46416044820152631253115160e21b60648201526084016109ff565b6001600160a01b038116811461297557600080fd5b50565b6000806040838503121561298b57600080fd5b823561299681612960565b946020939093013593505050565b60005b838110156129bf5781810151838201526020016129a7565b83811115610ad65750506000910152565b600081518084526129e88160208601602086016129a4565b601f01601f19169290920160200192915050565b8215158152604060208201526000612a1760408301846129d0565b949350505050565b634e487b7160e01b600052602160045260246000fd5b6001600160a01b038e811682528d166020820152604081018c9052606081018b9052608081018a905260a0810189905260c0810188905260e081018790526101008101869052610120810185905261014081018490526101a0810160028410612aa057612aa0612a1f565b61016082019390935261018001529b9a5050505050505050505050565b600060208284031215612acf57600080fd5b813561210d81612960565b60008083601f840112612aec57600080fd5b50813567ffffffffffffffff811115612b0457600080fd5b6020830191508360208260051b850101111561097257600080fd5b801515811461297557600080fd5b600080600060408486031215612b4257600080fd5b833567ffffffffffffffff811115612b5957600080fd5b612b6586828701612ada565b9094509250506020840135612b7981612b1f565b809150509250925092565b6020810160068310612b9857612b98612a1f565b91905290565b60008060208385031215612bb157600080fd5b823567ffffffffffffffff811115612bc857600080fd5b612bd485828601612ada565b90969095509350505050565b60008060408385031215612bf357600080fd5b823591506020830135612c0581612960565b809150509250929050565b608081526000612c2360808301876129d0565b8281036020840152612c3581876129d0565b91505083604083015260ff8316606083015295945050505050565b60008060408385031215612c6357600080fd5b82356002811061299657600080fd5b600060208284031215612c8457600080fd5b5035919050565b6020808252600990820152682737ba1037bbb732b960b91b604082015260600190565b634e487b7160e01b600052603260045260246000fd5b634e487b7160e01b600052601160045260246000fd5b6000600019821415612cee57612cee612cc4565b5060010190565b6020808252601f908201527f5265656e7472616e637947756172643a207265656e7472616e742063616c6c00604082015260600190565b600060ff821660ff841680821015612d4657612d46612cc4565b90039392505050565b600181815b80851115612d8a578160001904821115612d7057612d70612cc4565b80851615612d7d57918102915b93841c9390800290612d54565b509250929050565b600082612da15750600161197e565b81612dae5750600061197e565b8160018114612dc45760028114612dce57612dea565b600191505061197e565b60ff841115612ddf57612ddf612cc4565b50506001821b61197e565b5060208310610133831016604e8410600b8410161715612e0d575081810a61197e565b612e178383612d4f565b8060001904821115612e2b57612e2b612cc4565b029392505050565b600061210d60ff841683612d92565b600060208284031215612e5457600080fd5b5051919050565b60008219821115612e6e57612e6e612cc4565b500190565b600080600060608486031215612e8857600080fd5b8351925060208401519150604084015190509250925092565b6020808252818101527f43616e6e6f74206368616e67652061667465722066696e616c697a6174696f6e604082015260600190565b600181811c90821680612eea57607f821691505b60208210811415612f0b57634e487b7160e01b600052602260045260246000fd5b50919050565b60208152600061210d60208301846129d0565b60008251612f368184602087016129a4565b9190910192915050565b600060208284031215612f5257600080fd5b815161210d81612b1f565b6000816000190483118215151615612f7757612f77612cc4565b500290565b600082612f9957634e487b7160e01b600052601260045260246000fd5b500490565b600060208284031215612fb057600080fd5b815161210d8161296056fea264697066735822122007195780b540fb98ce7a48d55fbf5f1d8610edf27e3ea6824773dd552f40e2a464736f6c634300080c0033",
  "linkReferences": {},
  "deployedLinkReferences": {}
}